{
  "_format": "hh-sol-artifact-1",
  "contractName": "LiquidityPoolFactory",
  "sourceName": "contracts/LiquidityPoolFactory.sol",
  "abi": [
    {
      "inputs": [],
      "stateMutability": "nonpayable",
      "type": "constructor"
    },
    {
      "inputs": [
        {
          "internalType": "address",
          "name": "owner",
          "type": "address"
        }
      ],
      "name": "OwnableInvalidOwner",
      "type": "error"
    },
    {
      "inputs": [
        {
          "internalType": "address",
          "name": "account",
          "type": "address"
        }
      ],
      "name": "OwnableUnauthorizedAccount",
      "type": "error"
    },
    {
      "anonymous": false,
      "inputs": [
        {
          "indexed": true,
          "internalType": "address",
          "name": "creator",
          "type": "address"
        },
        {
          "indexed": true,
          "internalType": "address",
          "name": "liquidityPool",
          "type": "address"
        },
        {
          "indexed": false,
          "internalType": "uint256",
          "name": "poolCount",
          "type": "uint256"
        }
      ],
      "name": "LiquidityPoolCreated",
      "type": "event"
    },
    {
      "anonymous": false,
      "inputs": [
        {
          "indexed": true,
          "internalType": "address",
          "name": "previousOwner",
          "type": "address"
        },
        {
          "indexed": true,
          "internalType": "address",
          "name": "newOwner",
          "type": "address"
        }
      ],
      "name": "OwnershipTransferred",
      "type": "event"
    },
    {
      "inputs": [
        {
          "internalType": "uint256",
          "name": "",
          "type": "uint256"
        }
      ],
      "name": "allLiquidityPools",
      "outputs": [
        {
          "internalType": "address",
          "name": "",
          "type": "address"
        }
      ],
      "stateMutability": "view",
      "type": "function"
    },
    {
      "inputs": [
        {
          "internalType": "address",
          "name": "token1",
          "type": "address"
        },
        {
          "internalType": "address",
          "name": "token2",
          "type": "address"
        }
      ],
      "name": "createLiquidityPool",
      "outputs": [],
      "stateMutability": "nonpayable",
      "type": "function"
    },
    {
      "inputs": [],
      "name": "getAllLiquidityPools",
      "outputs": [
        {
          "internalType": "address[]",
          "name": "",
          "type": "address[]"
        }
      ],
      "stateMutability": "view",
      "type": "function"
    },
    {
      "inputs": [
        {
          "internalType": "address",
          "name": "",
          "type": "address"
        },
        {
          "internalType": "address",
          "name": "",
          "type": "address"
        }
      ],
      "name": "getPool",
      "outputs": [
        {
          "internalType": "address",
          "name": "",
          "type": "address"
        }
      ],
      "stateMutability": "view",
      "type": "function"
    },
    {
      "inputs": [
        {
          "internalType": "address",
          "name": "token1",
          "type": "address"
        },
        {
          "internalType": "address",
          "name": "token2",
          "type": "address"
        }
      ],
      "name": "getPoolByTokens",
      "outputs": [
        {
          "internalType": "address",
          "name": "",
          "type": "address"
        }
      ],
      "stateMutability": "view",
      "type": "function"
    },
    {
      "inputs": [],
      "name": "getPoolCount",
      "outputs": [
        {
          "internalType": "uint256",
          "name": "",
          "type": "uint256"
        }
      ],
      "stateMutability": "view",
      "type": "function"
    },
    {
      "inputs": [
        {
          "internalType": "address",
          "name": "pool",
          "type": "address"
        }
      ],
      "name": "isPoolValid",
      "outputs": [
        {
          "internalType": "bool",
          "name": "",
          "type": "bool"
        }
      ],
      "stateMutability": "view",
      "type": "function"
    },
    {
      "inputs": [
        {
          "internalType": "address",
          "name": "",
          "type": "address"
        }
      ],
      "name": "isValidPool",
      "outputs": [
        {
          "internalType": "bool",
          "name": "",
          "type": "bool"
        }
      ],
      "stateMutability": "view",
      "type": "function"
    },
    {
      "inputs": [],
      "name": "owner",
      "outputs": [
        {
          "internalType": "address",
          "name": "",
          "type": "address"
        }
      ],
      "stateMutability": "view",
      "type": "function"
    },
    {
      "inputs": [],
      "name": "poolCount",
      "outputs": [
        {
          "internalType": "uint256",
          "name": "",
          "type": "uint256"
        }
      ],
      "stateMutability": "view",
      "type": "function"
    },
    {
      "inputs": [],
      "name": "renounceOwnership",
      "outputs": [],
      "stateMutability": "nonpayable",
      "type": "function"
    },
    {
      "inputs": [
        {
          "internalType": "address",
          "name": "newOwner",
          "type": "address"
        }
      ],
      "name": "transferOwnership",
      "outputs": [],
      "stateMutability": "nonpayable",
      "type": "function"
    }
  ],
  "bytecode": "0x608060405234801561001057600080fd5b5033600073ffffffffffffffffffffffffffffffffffffffff168173ffffffffffffffffffffffffffffffffffffffff16036100845760006040517f1e4fbdf700000000000000000000000000000000000000000000000000000000815260040161007b919061019e565b60405180910390fd5b6100938161009960201b60201c565b506101b9565b60008060009054906101000a900473ffffffffffffffffffffffffffffffffffffffff169050816000806101000a81548173ffffffffffffffffffffffffffffffffffffffff021916908373ffffffffffffffffffffffffffffffffffffffff1602179055508173ffffffffffffffffffffffffffffffffffffffff168173ffffffffffffffffffffffffffffffffffffffff167f8be0079c531659141344cd1fd0a4f28419497f9722a3daafe3b4186f6b6457e060405160405180910390a35050565b600073ffffffffffffffffffffffffffffffffffffffff82169050919050565b60006101888261015d565b9050919050565b6101988161017d565b82525050565b60006020820190506101b3600083018461018f565b92915050565b61501d80620001c96000396000f3fe60806040523480156200001157600080fd5b5060043610620000c45760003560e01c80638eec5d70116200007b5780638eec5d7014620001b9578063dcdf60e814620001db578063f2fde38b1462000211578063f525cb681462000231578063f6c578611462000253578063faf47972146200028957620000c4565b80631030914e14620000c95780632384d3d014620000ff578063531aa03e146200011f5780635ab78ee11462000155578063715018a6146200018b5780638da5cb5b1462000197575b600080fd5b620000e76004803603810190620000e1919062000d87565b620002ab565b604051620000f6919062000ddf565b60405180910390f35b6200011d600480360381019062000117919062000d87565b62000352565b005b6200013d600480360381019062000137919062000d87565b6200094d565b6040516200014c919062000ddf565b60405180910390f35b6200017360048036038101906200016d919062000dfc565b6200098f565b60405162000182919062000e4b565b60405180910390f35b62000195620009af565b005b620001a1620009c7565b604051620001b0919062000ddf565b60405180910390f35b620001c3620009f0565b604051620001d2919062000e83565b60405180910390f35b620001f96004803603810190620001f3919062000ed1565b620009fa565b60405162000208919062000ddf565b60405180910390f35b6200022f600480360381019062000229919062000dfc565b62000a3a565b005b6200023b62000ac7565b6040516200024a919062000e83565b60405180910390f35b6200027160048036038101906200026b919062000dfc565b62000acd565b60405162000280919062000e4b565b60405180910390f35b6200029362000b23565b604051620002a2919062000fd1565b60405180910390f35b6000600460008473ffffffffffffffffffffffffffffffffffffffff1673ffffffffffffffffffffffffffffffffffffffff16815260200190815260200160002060008373ffffffffffffffffffffffffffffffffffffffff1673ffffffffffffffffffffffffffffffffffffffff16815260200190815260200160002060009054906101000a900473ffffffffffffffffffffffffffffffffffffffff16905092915050565b600073ffffffffffffffffffffffffffffffffffffffff168273ffffffffffffffffffffffffffffffffffffffff1614158015620003bd5750600073ffffffffffffffffffffffffffffffffffffffff168173ffffffffffffffffffffffffffffffffffffffff1614155b620003ff576040517f08c379a0000000000000000000000000000000000000000000000000000000008152600401620003f69062001056565b60405180910390fd5b8073ffffffffffffffffffffffffffffffffffffffff168273ffffffffffffffffffffffffffffffffffffffff160362000470576040517f08c379a00000000000000000000000000000000000000000000000000000000081526004016200046790620010c8565b60405180910390fd5b600073ffffffffffffffffffffffffffffffffffffffff16600460008473ffffffffffffffffffffffffffffffffffffffff1673ffffffffffffffffffffffffffffffffffffffff16815260200190815260200160002060008373ffffffffffffffffffffffffffffffffffffffff1673ffffffffffffffffffffffffffffffffffffffff16815260200190815260200160002060009054906101000a900473ffffffffffffffffffffffffffffffffffffffff1673ffffffffffffffffffffffffffffffffffffffff16146200057e576040517f08c379a000000000000000000000000000000000000000000000000000000000815260040162000575906200113a565b60405180910390fd5b60006040516200058e9062000d0f565b604051809103906000f080158015620005ab573d6000803e3d6000fd5b5090508073ffffffffffffffffffffffffffffffffffffffff1663485cc95584846040518363ffffffff1660e01b8152600401620005eb9291906200115c565b600060405180830381600087803b1580156200060657600080fd5b505af11580156200061b573d6000803e3d6000fd5b5050505060008190506001819080600181540180825580915050600190039060005260206000200160009091909190916101000a81548173ffffffffffffffffffffffffffffffffffffffff021916908373ffffffffffffffffffffffffffffffffffffffff1602179055506001600260008373ffffffffffffffffffffffffffffffffffffffff1673ffffffffffffffffffffffffffffffffffffffff16815260200190815260200160002060006101000a81548160ff02191690831515021790555080600460008673ffffffffffffffffffffffffffffffffffffffff1673ffffffffffffffffffffffffffffffffffffffff16815260200190815260200160002060008573ffffffffffffffffffffffffffffffffffffffff1673ffffffffffffffffffffffffffffffffffffffff16815260200190815260200160002060006101000a81548173ffffffffffffffffffffffffffffffffffffffff021916908373ffffffffffffffffffffffffffffffffffffffff16021790555080600460008573ffffffffffffffffffffffffffffffffffffffff1673ffffffffffffffffffffffffffffffffffffffff16815260200190815260200160002060008673ffffffffffffffffffffffffffffffffffffffff1673ffffffffffffffffffffffffffffffffffffffff16815260200190815260200160002060006101000a81548173ffffffffffffffffffffffffffffffffffffffff021916908373ffffffffffffffffffffffffffffffffffffffff160217905550600360008154809291906200086a90620011b8565b91905055508173ffffffffffffffffffffffffffffffffffffffff1663f2fde38b336040518263ffffffff1660e01b8152600401620008aa919062000ddf565b600060405180830381600087803b158015620008c557600080fd5b505af1158015620008da573d6000803e3d6000fd5b505050508073ffffffffffffffffffffffffffffffffffffffff163373ffffffffffffffffffffffffffffffffffffffff167f3271d3df788594116b4b02c162756c0300666eb726c92c379ca87f8b650a2d4e6003546040516200093f919062000e83565b60405180910390a350505050565b60046020528160005260406000206020528060005260406000206000915091509054906101000a900473ffffffffffffffffffffffffffffffffffffffff1681565b60026020528060005260406000206000915054906101000a900460ff1681565b620009b962000bb3565b620009c5600062000c43565b565b60008060009054906101000a900473ffffffffffffffffffffffffffffffffffffffff16905090565b6000600354905090565b6001818154811062000a0b57600080fd5b906000526020600020016000915054906101000a900473ffffffffffffffffffffffffffffffffffffffff1681565b62000a4462000bb3565b600073ffffffffffffffffffffffffffffffffffffffff168173ffffffffffffffffffffffffffffffffffffffff160362000ab95760006040517f1e4fbdf700000000000000000000000000000000000000000000000000000000815260040162000ab0919062000ddf565b60405180910390fd5b62000ac48162000c43565b50565b60035481565b6000600260008373ffffffffffffffffffffffffffffffffffffffff1673ffffffffffffffffffffffffffffffffffffffff16815260200190815260200160002060009054906101000a900460ff169050919050565b6060600180548060200260200160405190810160405280929190818152602001828054801562000ba957602002820191906000526020600020905b8160009054906101000a900473ffffffffffffffffffffffffffffffffffffffff1673ffffffffffffffffffffffffffffffffffffffff168152602001906001019080831162000b5e575b5050505050905090565b62000bbd62000d07565b73ffffffffffffffffffffffffffffffffffffffff1662000bdd620009c7565b73ffffffffffffffffffffffffffffffffffffffff161462000c415762000c0362000d07565b6040517f118cdaa700000000000000000000000000000000000000000000000000000000815260040162000c38919062000ddf565b60405180910390fd5b565b60008060009054906101000a900473ffffffffffffffffffffffffffffffffffffffff169050816000806101000a81548173ffffffffffffffffffffffffffffffffffffffff021916908373ffffffffffffffffffffffffffffffffffffffff1602179055508173ffffffffffffffffffffffffffffffffffffffff168173ffffffffffffffffffffffffffffffffffffffff167f8be0079c531659141344cd1fd0a4f28419497f9722a3daafe3b4186f6b6457e060405160405180910390a35050565b600033905090565b613de2806200120683390190565b600080fd5b600073ffffffffffffffffffffffffffffffffffffffff82169050919050565b600062000d4f8262000d22565b9050919050565b62000d618162000d42565b811462000d6d57600080fd5b50565b60008135905062000d818162000d56565b92915050565b6000806040838503121562000da15762000da062000d1d565b5b600062000db18582860162000d70565b925050602062000dc48582860162000d70565b9150509250929050565b62000dd98162000d42565b82525050565b600060208201905062000df6600083018462000dce565b92915050565b60006020828403121562000e155762000e1462000d1d565b5b600062000e258482850162000d70565b91505092915050565b60008115159050919050565b62000e458162000e2e565b82525050565b600060208201905062000e62600083018462000e3a565b92915050565b6000819050919050565b62000e7d8162000e68565b82525050565b600060208201905062000e9a600083018462000e72565b92915050565b62000eab8162000e68565b811462000eb757600080fd5b50565b60008135905062000ecb8162000ea0565b92915050565b60006020828403121562000eea5762000ee962000d1d565b5b600062000efa8482850162000eba565b91505092915050565b600081519050919050565b600082825260208201905092915050565b6000819050602082019050919050565b62000f3a8162000d42565b82525050565b600062000f4e838362000f2f565b60208301905092915050565b6000602082019050919050565b600062000f748262000f03565b62000f80818562000f0e565b935062000f8d8362000f1f565b8060005b8381101562000fc457815162000fa8888262000f40565b975062000fb58362000f5a565b92505060018101905062000f91565b5085935050505092915050565b6000602082019050818103600083015262000fed818462000f67565b905092915050565b600082825260208201905092915050565b7f496e76616c696420746f6b656e20616464726573730000000000000000000000600082015250565b60006200103e60158362000ff5565b91506200104b8262001006565b602082019050919050565b6000602082019050818103600083015262001071816200102f565b9050919050565b7f4964656e746963616c20746f6b656e7300000000000000000000000000000000600082015250565b6000620010b060108362000ff5565b9150620010bd8262001078565b602082019050919050565b60006020820190508181036000830152620010e381620010a1565b9050919050565b7f506f6f6c20657869737473000000000000000000000000000000000000000000600082015250565b600062001122600b8362000ff5565b91506200112f82620010ea565b602082019050919050565b60006020820190508181036000830152620011558162001113565b9050919050565b600060408201905062001173600083018562000dce565b62001182602083018462000dce565b9392505050565b7f4e487b7100000000000000000000000000000000000000000000000000000000600052601160045260246000fd5b6000620011c58262000e68565b91507fffffffffffffffffffffffffffffffffffffffffffffffffffffffffffffffff8203620011fa57620011f962001189565b5b60018201905091905056fe60806040526001600b556005600c556014600e553480156200002057600080fd5b5033600073ffffffffffffffffffffffffffffffffffffffff168173ffffffffffffffffffffffffffffffffffffffff1603620000975760006040517f1e4fbdf70000000000000000000000000000000000000000000000000000000081526004016200008e9190620001bf565b60405180910390fd5b620000a881620000b660201b60201c565b5060018081905550620001dc565b60008060009054906101000a900473ffffffffffffffffffffffffffffffffffffffff169050816000806101000a81548173ffffffffffffffffffffffffffffffffffffffff021916908373ffffffffffffffffffffffffffffffffffffffff1602179055508173ffffffffffffffffffffffffffffffffffffffff168173ffffffffffffffffffffffffffffffffffffffff167f8be0079c531659141344cd1fd0a4f28419497f9722a3daafe3b4186f6b6457e060405160405180910390a35050565b600073ffffffffffffffffffffffffffffffffffffffff82169050919050565b6000620001a7826200017a565b9050919050565b620001b9816200019a565b82525050565b6000602082019050620001d66000830184620001ae565b92915050565b613bf680620001ec6000396000f3fe608060405234801561001057600080fd5b50600436106101cf5760003560e01c80637a16af7f116101045780639f1d0f59116100a2578063eb9bad7b11610071578063eb9bad7b146104fc578063ed79e6c11461052c578063f2fde38b1461055c578063f8df810614610578576101cf565b80639f1d0f5914610488578063be25aff9146104a4578063d21220a7146104c0578063de539688146104de576101cf565b80638bdf67f2116100de5780638bdf67f2146104145780638da5cb5b14610430578063978bbdb91461044e5780639d7de6b31461046c576101cf565b80637a16af7f146103bc5780637b0a47ee146103d85780637e2eee53146103f6576101cf565b8063392e53cd116101715780634f64b2be1161014b5780634f64b2be14610344578063642f2eaf146103745780636f4a2cd0146103a8578063715018a6146103b2576101cf565b8063392e53cd146102da5780633b5d441e146102f8578063485cc95514610328576101cf565b8063274050ea116101ad578063274050ea146102525780632a5c792a146102705780632bdb12a91461028e578063369814e1146102aa576101cf565b8063054d50d4146101d4578063097aad101461020457806325be124e14610234575b600080fd5b6101ee60048036038101906101e99190612a10565b610596565b6040516101fb9190612a72565b60405180910390f35b61021e60048036038101906102199190612aeb565b610611565b60405161022b9190612a72565b60405180910390f35b61023c610775565b6040516102499190612b77565b60405180910390f35b61025a61079b565b6040516102679190612a72565b60405180910390f35b6102786107a1565b6040516102859190612c50565b60405180910390f35b6102a860048036038101906102a39190612caa565b61082f565b005b6102c460048036038101906102bf9190612aeb565b6108d7565b6040516102d19190612a72565b60405180910390f35b6102e26108ef565b6040516102ef9190612ce6565b60405180910390f35b610312600480360381019061030d9190612aeb565b610902565b60405161031f9190612a72565b60405180910390f35b610342600480360381019061033d9190612d01565b61091a565b005b61035e60048036038101906103599190612d41565b610bdc565b60405161036b9190612d7d565b60405180910390f35b61038e60048036038101906103899190612dce565b610c1b565b60405161039f959493929190612dfb565b60405180910390f35b6103b0610c7e565b005b6103ba610f6d565b005b6103d660048036038101906103d19190612e4e565b610f81565b005b6103e0611367565b6040516103ed9190612a72565b60405180910390f35b6103fe61136d565b60405161040b9190612a72565b60405180910390f35b61042e60048036038101906104299190612d41565b611373565b005b610438611528565b6040516104459190612d7d565b60405180910390f35b610456611551565b6040516104639190612a72565b60405180910390f35b61048660048036038101906104819190612e4e565b611557565b005b6104a2600480360381019061049d9190612e8e565b6119aa565b005b6104be60048036038101906104b99190612dce565b612260565b005b6104c86124f0565b6040516104d59190612b77565b60405180910390f35b6104e6612516565b6040516104f39190612f9f565b60405180910390f35b61051660048036038101906105119190612aeb565b61276f565b6040516105239190612a72565b60405180910390f35b61054660048036038101906105419190612aeb565b612787565b6040516105539190612ce6565b60405180910390f35b61057660048036038101906105719190612aeb565b6127a7565b005b61058061282d565b60405161058d9190612a72565b60405180910390f35b60008084116105da576040517f08c379a00000000000000000000000000000000000000000000000000000000081526004016105d19061301e565b60405180910390fd5b600082856105e8919061306d565b9050600085856105f891906130af565b905080826106069190613112565b925050509392505050565b6000600d60009054906101000a900460ff16610662576040517f08c379a00000000000000000000000000000000000000000000000000000000081526004016106599061318f565b60405180910390fd5b6000600860008473ffffffffffffffffffffffffffffffffffffffff1673ffffffffffffffffffffffffffffffffffffffff16815260200190815260200160002054426106af91906131af565b90506000600760008573ffffffffffffffffffffffffffffffffffffffff1673ffffffffffffffffffffffffffffffffffffffff16815260200190815260200160002054600660008673ffffffffffffffffffffffffffffffffffffffff1673ffffffffffffffffffffffffffffffffffffffff1681526020019081526020016000205461073d91906130af565b905060006201518083600b5484610754919061306d565b61075e919061306d565b6107689190613112565b9050809350505050919050565b600360009054906101000a900473ffffffffffffffffffffffffffffffffffffffff1681565b60045481565b6060600f80548060200260200160405190810160405280929190818152602001828054801561082557602002820191906000526020600020905b8160009054906101000a900473ffffffffffffffffffffffffffffffffffffffff1673ffffffffffffffffffffffffffffffffffffffff16815260200190600101908083116107db575b5050505050905090565b80600960003373ffffffffffffffffffffffffffffffffffffffff1673ffffffffffffffffffffffffffffffffffffffff16815260200190815260200160002060006101000a81548160ff0219169083151502179055503373ffffffffffffffffffffffffffffffffffffffff167f3f213a620185a34a7c532d3d2f625100979cc50d28590fa12d37a986d541ef40826040516108cc9190612ce6565b60405180910390a250565b60076020528060005260406000206000915090505481565b600d60009054906101000a900460ff1681565b60086020528060005260406000206000915090505481565b610922612833565b600d60009054906101000a900460ff1615610972576040517f08c379a00000000000000000000000000000000000000000000000000000000081526004016109699061322f565b60405180910390fd5b600073ffffffffffffffffffffffffffffffffffffffff168273ffffffffffffffffffffffffffffffffffffffff16141580156109dc5750600073ffffffffffffffffffffffffffffffffffffffff168173ffffffffffffffffffffffffffffffffffffffff1614155b610a1b576040517f08c379a0000000000000000000000000000000000000000000000000000000008152600401610a129061329b565b60405180910390fd5b81600260006101000a81548173ffffffffffffffffffffffffffffffffffffffff021916908373ffffffffffffffffffffffffffffffffffffffff16021790555080600360006101000a81548173ffffffffffffffffffffffffffffffffffffffff021916908373ffffffffffffffffffffffffffffffffffffffff1602179055506001600d60006101000a81548160ff021916908315150217905550600f829080600181540180825580915050600190039060005260206000200160009091909190916101000a81548173ffffffffffffffffffffffffffffffffffffffff021916908373ffffffffffffffffffffffffffffffffffffffff160217905550600f819080600181540180825580915050600190039060005260206000200160009091909190916101000a81548173ffffffffffffffffffffffffffffffffffffffff021916908373ffffffffffffffffffffffffffffffffffffffff1602179055508073ffffffffffffffffffffffffffffffffffffffff168273ffffffffffffffffffffffffffffffffffffffff167f3cd5ec01b1ae7cfec6ca1863e2cd6aa25d6d1702825803ff2b7cc95010fffdc260405160405180910390a35050565b600f8181548110610bec57600080fd5b906000526020600020016000915054906101000a900473ffffffffffffffffffffffffffffffffffffffff1681565b600a6020528060005260406000206000915090508060000160009054906101000a900473ffffffffffffffffffffffffffffffffffffffff16908060010154908060020154908060030154908060040160009054906101000a900460ff16905085565b610c866128ba565b600d60009054906101000a900460ff16610cd5576040517f08c379a0000000000000000000000000000000000000000000000000000000008152600401610ccc9061318f565b60405180910390fd5b6000600760003373ffffffffffffffffffffffffffffffffffffffff1673ffffffffffffffffffffffffffffffffffffffff16815260200190815260200160002054600660003373ffffffffffffffffffffffffffffffffffffffff1673ffffffffffffffffffffffffffffffffffffffff16815260200190815260200160002054610d6191906130af565b11610da1576040517f08c379a0000000000000000000000000000000000000000000000000000000008152600401610d9890613307565b60405180910390fd5b6000610dac33610611565b905060008111610df1576040517f08c379a0000000000000000000000000000000000000000000000000000000008152600401610de890613373565b60405180910390fd5b600260009054906101000a900473ffffffffffffffffffffffffffffffffffffffff1673ffffffffffffffffffffffffffffffffffffffff1663a9059cbb33836040518363ffffffff1660e01b8152600401610e4e929190613393565b6020604051808303816000875af1158015610e6d573d6000803e3d6000fd5b505050506040513d601f19601f82011682018060405250810190610e9191906133d1565b610ed0576040517f08c379a0000000000000000000000000000000000000000000000000000000008152600401610ec79061344a565b60405180910390fd5b42600860003373ffffffffffffffffffffffffffffffffffffffff1673ffffffffffffffffffffffffffffffffffffffff168152602001908152602001600020819055503373ffffffffffffffffffffffffffffffffffffffff167fdf29796aad820e4bb192f3a8d631b76519bcd2cbe77cc85af20e9df53cece08682604051610f5a9190612a72565b60405180910390a250610f6b612900565b565b610f75612833565b610f7f6000612909565b565b610f896128ba565b600d60009054906101000a900460ff16610fd8576040517f08c379a0000000000000000000000000000000000000000000000000000000008152600401610fcf9061318f565b60405180910390fd5b600082118015610fe85750600081115b611027576040517f08c379a000000000000000000000000000000000000000000000000000000000815260040161101e906134dc565b60405180910390fd5b600260009054906101000a900473ffffffffffffffffffffffffffffffffffffffff1673ffffffffffffffffffffffffffffffffffffffff166323b872dd3330856040518463ffffffff1660e01b8152600401611086939291906134fc565b6020604051808303816000875af11580156110a5573d6000803e3d6000fd5b505050506040513d601f19601f820116820180604052508101906110c991906133d1565b611108576040517f08c379a00000000000000000000000000000000000000000000000000000000081526004016110ff9061357f565b60405180910390fd5b600360009054906101000a900473ffffffffffffffffffffffffffffffffffffffff1673ffffffffffffffffffffffffffffffffffffffff166323b872dd3330846040518463ffffffff1660e01b8152600401611167939291906134fc565b6020604051808303816000875af1158015611186573d6000803e3d6000fd5b505050506040513d601f19601f820116820180604052508101906111aa91906133d1565b6111e9576040517f08c379a00000000000000000000000000000000000000000000000000000000081526004016111e0906135eb565b60405180910390fd5b81600460008282546111fb91906130af565b92505081905550806005600082825461121491906130af565b9250508190555081600660003373ffffffffffffffffffffffffffffffffffffffff1673ffffffffffffffffffffffffffffffffffffffff168152602001908152602001600020600082825461126a91906130af565b9250508190555080600760003373ffffffffffffffffffffffffffffffffffffffff1673ffffffffffffffffffffffffffffffffffffffff16815260200190815260200160002060008282546112c091906130af565b9250508190555042600860003373ffffffffffffffffffffffffffffffffffffffff1673ffffffffffffffffffffffffffffffffffffffff168152602001908152602001600020819055503373ffffffffffffffffffffffffffffffffffffffff167f1ac2a3fcfba58b9a98dc07fac71d2bc8f0e34b3ddaa112b7e73de42a8623a3bb838360405161135392919061360b565b60405180910390a2611363612900565b5050565b600b5481565b600c5481565b61137b612833565b600d60009054906101000a900460ff166113ca576040517f08c379a00000000000000000000000000000000000000000000000000000000081526004016113c19061318f565b60405180910390fd5b6000811161140d576040517f08c379a000000000000000000000000000000000000000000000000000000000815260040161140490613680565b60405180910390fd5b600260009054906101000a900473ffffffffffffffffffffffffffffffffffffffff1673ffffffffffffffffffffffffffffffffffffffff166323b872dd3330846040518463ffffffff1660e01b815260040161146c939291906134fc565b6020604051808303816000875af115801561148b573d6000803e3d6000fd5b505050506040513d601f19601f820116820180604052508101906114af91906133d1565b6114ee576040517f08c379a00000000000000000000000000000000000000000000000000000000081526004016114e5906136ec565b60405180910390fd5b7f4e9221f2cca6ca0397acc6004ea0b716798254f5abcf53924fab34f0373e5d4e8160405161151d9190612a72565b60405180910390a150565b60008060009054906101000a900473ffffffffffffffffffffffffffffffffffffffff16905090565b600e5481565b61155f6128ba565b600d60009054906101000a900460ff166115ae576040517f08c379a00000000000000000000000000000000000000000000000000000000081526004016115a59061318f565b60405180910390fd5b81600660003373ffffffffffffffffffffffffffffffffffffffff1673ffffffffffffffffffffffffffffffffffffffff168152602001908152602001600020541015611630576040517f08c379a000000000000000000000000000000000000000000000000000000000815260040161162790613758565b60405180910390fd5b80600760003373ffffffffffffffffffffffffffffffffffffffff1673ffffffffffffffffffffffffffffffffffffffff1681526020019081526020016000205410156116b2576040517f08c379a00000000000000000000000000000000000000000000000000000000081526004016116a9906137c4565b60405180910390fd5b81600460008282546116c491906131af565b9250508190555080600560008282546116dd91906131af565b9250508190555081600660003373ffffffffffffffffffffffffffffffffffffffff1673ffffffffffffffffffffffffffffffffffffffff168152602001908152602001600020600082825461173391906131af565b9250508190555080600760003373ffffffffffffffffffffffffffffffffffffffff1673ffffffffffffffffffffffffffffffffffffffff168152602001908152602001600020600082825461178991906131af565b92505081905550600260009054906101000a900473ffffffffffffffffffffffffffffffffffffffff1673ffffffffffffffffffffffffffffffffffffffff1663a9059cbb33846040518363ffffffff1660e01b81526004016117ed929190613393565b6020604051808303816000875af115801561180c573d6000803e3d6000fd5b505050506040513d601f19601f8201168201806040525081019061183091906133d1565b61186f576040517f08c379a00000000000000000000000000000000000000000000000000000000081526004016118669061357f565b60405180910390fd5b600360009054906101000a900473ffffffffffffffffffffffffffffffffffffffff1673ffffffffffffffffffffffffffffffffffffffff1663a9059cbb33836040518363ffffffff1660e01b81526004016118cc929190613393565b6020604051808303816000875af11580156118eb573d6000803e3d6000fd5b505050506040513d601f19601f8201168201806040525081019061190f91906133d1565b61194e576040517f08c379a0000000000000000000000000000000000000000000000000000000008152600401611945906135eb565b60405180910390fd5b3373ffffffffffffffffffffffffffffffffffffffff167f0fbf06c058b90cb038a618f8c2acbf6145f8b3570fd1fa56abb8f0f3f05b36e8838360405161199692919061360b565b60405180910390a26119a6612900565b5050565b6119b26128ba565b600d60009054906101000a900460ff16611a01576040517f08c379a00000000000000000000000000000000000000000000000000000000081526004016119f89061318f565b60405180910390fd5b600260009054906101000a900473ffffffffffffffffffffffffffffffffffffffff1673ffffffffffffffffffffffffffffffffffffffff168373ffffffffffffffffffffffffffffffffffffffff161480611aaa5750600360009054906101000a900473ffffffffffffffffffffffffffffffffffffffff1673ffffffffffffffffffffffffffffffffffffffff168373ffffffffffffffffffffffffffffffffffffffff16145b611ae9576040517f08c379a0000000000000000000000000000000000000000000000000000000008152600401611ae090613830565b60405180910390fd5b60008211611b2c576040517f08c379a0000000000000000000000000000000000000000000000000000000008152600401611b2390613680565b60405180910390fd5b600080612710600e5485611b40919061306d565b611b4a9190613112565b905060008185611b5a91906131af565b9050600260009054906101000a900473ffffffffffffffffffffffffffffffffffffffff1673ffffffffffffffffffffffffffffffffffffffff168673ffffffffffffffffffffffffffffffffffffffff1603611dfc57611bc081600454600554610596565b925083831015611c05576040517f08c379a0000000000000000000000000000000000000000000000000000000008152600401611bfc9061389c565b60405180910390fd5b600260009054906101000a900473ffffffffffffffffffffffffffffffffffffffff1673ffffffffffffffffffffffffffffffffffffffff166323b872dd3330886040518463ffffffff1660e01b8152600401611c64939291906134fc565b6020604051808303816000875af1158015611c83573d6000803e3d6000fd5b505050506040513d601f19601f82011682018060405250810190611ca791906133d1565b611ce6576040517f08c379a0000000000000000000000000000000000000000000000000000000008152600401611cdd90613908565b60405180910390fd5b600360009054906101000a900473ffffffffffffffffffffffffffffffffffffffff1673ffffffffffffffffffffffffffffffffffffffff1663a9059cbb33856040518363ffffffff1660e01b8152600401611d43929190613393565b6020604051808303816000875af1158015611d62573d6000803e3d6000fd5b505050506040513d601f19601f82011682018060405250810190611d8691906133d1565b611dc5576040517f08c379a0000000000000000000000000000000000000000000000000000000008152600401611dbc90613908565b60405180910390fd5b8060046000828254611dd791906130af565b925050819055508260056000828254611df091906131af565b92505081905550612043565b611e0b81600554600454610596565b925083831015611e50576040517f08c379a0000000000000000000000000000000000000000000000000000000008152600401611e479061389c565b60405180910390fd5b600360009054906101000a900473ffffffffffffffffffffffffffffffffffffffff1673ffffffffffffffffffffffffffffffffffffffff166323b872dd3330886040518463ffffffff1660e01b8152600401611eaf939291906134fc565b6020604051808303816000875af1158015611ece573d6000803e3d6000fd5b505050506040513d601f19601f82011682018060405250810190611ef291906133d1565b611f31576040517f08c379a0000000000000000000000000000000000000000000000000000000008152600401611f2890613908565b60405180910390fd5b600260009054906101000a900473ffffffffffffffffffffffffffffffffffffffff1673ffffffffffffffffffffffffffffffffffffffff1663a9059cbb33856040518363ffffffff1660e01b8152600401611f8e929190613393565b6020604051808303816000875af1158015611fad573d6000803e3d6000fd5b505050506040513d601f19601f82011682018060405250810190611fd191906133d1565b612010576040517f08c379a000000000000000000000000000000000000000000000000000000000815260040161200790613908565b60405180910390fd5b806005600082825461202291906130af565b92505081905550826004600082825461203b91906131af565b925050819055505b600960003373ffffffffffffffffffffffffffffffffffffffff1673ffffffffffffffffffffffffffffffffffffffff16815260200190815260200160002060009054906101000a900460ff16156121fb576000338685426040516020016120ae9493929190613991565b6040516020818303038152906040528051906020012090506040518060a001604052803373ffffffffffffffffffffffffffffffffffffffff16815260200187815260200185815260200142815260200160011515815250600a600083815260200190815260200160002060008201518160000160006101000a81548173ffffffffffffffffffffffffffffffffffffffff021916908373ffffffffffffffffffffffffffffffffffffffff16021790555060208201518160010155604082015181600201556060820151816003015560808201518160040160006101000a81548160ff0219169083151502179055509050503373ffffffffffffffffffffffffffffffffffffffff16817f9838f21b695a3894be706fa23638e449f1fdd3089a28bf615d7b80034e127e40884260016040516121ed939291906139df565b60405180910390a350612250565b3373ffffffffffffffffffffffffffffffffffffffff166000801b7fcc4cdd31c9d7f80f728338082c0f7947f35e98a0bf59088d69c1fdd0203d584b878660405161224792919061360b565b60405180910390a35b50505061225b612900565b505050565b600d60009054906101000a900460ff166122af576040517f08c379a00000000000000000000000000000000000000000000000000000000081526004016122a69061318f565b60405180910390fd5b6000600a60008381526020019081526020016000206040518060a00160405290816000820160009054906101000a900473ffffffffffffffffffffffffffffffffffffffff1673ffffffffffffffffffffffffffffffffffffffff1673ffffffffffffffffffffffffffffffffffffffff1681526020016001820154815260200160028201548152602001600382015481526020016004820160009054906101000a900460ff16151515158152505090503373ffffffffffffffffffffffffffffffffffffffff16816000015173ffffffffffffffffffffffffffffffffffffffff16146123d2576040517f08c379a00000000000000000000000000000000000000000000000000000000081526004016123c990613a62565b60405180910390fd5b600c5481606001516123e491906130af565b421015612426576040517f08c379a000000000000000000000000000000000000000000000000000000000815260040161241d90613ace565b60405180910390fd5b806000015173ffffffffffffffffffffffffffffffffffffffff16827fcc4cdd31c9d7f80f728338082c0f7947f35e98a0bf59088d69c1fdd0203d584b8360200151846040015160405161247b92919061360b565b60405180910390a3600a6000838152602001908152602001600020600080820160006101000a81549073ffffffffffffffffffffffffffffffffffffffff02191690556001820160009055600282016000905560038201600090556004820160006101000a81549060ff021916905550505050565b600260009054906101000a900473ffffffffffffffffffffffffffffffffffffffff1681565b60606000600f8054905067ffffffffffffffff81111561253957612538613aee565b5b6040519080825280602002602001820160405280156125675781602001602082028036833780820191505090505b5090506000805b600f805490508110156126bf57600033600f838154811061259257612591613b1d565b5b9060005260206000200160009054906101000a900473ffffffffffffffffffffffffffffffffffffffff166040516020016125ce929190613b4c565b6040516020818303038152906040528051906020012090503373ffffffffffffffffffffffffffffffffffffffff16600a600083815260200190815260200160002060000160009054906101000a900473ffffffffffffffffffffffffffffffffffffffff1673ffffffffffffffffffffffffffffffffffffffff161480156126775750600a600082815260200190815260200160002060040160009054906101000a900460ff165b156126ab57808484815181106126905761268f613b1d565b5b60200260200101818152505082806126a790613b78565b9350505b5080806126b790613b78565b91505061256e565b5060008167ffffffffffffffff8111156126dc576126db613aee565b5b60405190808252806020026020018201604052801561270a5781602001602082028036833780820191505090505b50905060005b828110156127655783818151811061272b5761272a613b1d565b5b602002602001015182828151811061274657612745613b1d565b5b602002602001018181525050808061275d90613b78565b915050612710565b5080935050505090565b60066020528060005260406000206000915090505481565b60096020528060005260406000206000915054906101000a900460ff1681565b6127af612833565b600073ffffffffffffffffffffffffffffffffffffffff168173ffffffffffffffffffffffffffffffffffffffff16036128215760006040517f1e4fbdf70000000000000000000000000000000000000000000000000000000081526004016128189190612d7d565b60405180910390fd5b61282a81612909565b50565b60055481565b61283b6129cd565b73ffffffffffffffffffffffffffffffffffffffff16612859611528565b73ffffffffffffffffffffffffffffffffffffffff16146128b85761287c6129cd565b6040517f118cdaa70000000000000000000000000000000000000000000000000000000081526004016128af9190612d7d565b60405180910390fd5b565b6002600154036128f6576040517f3ee5aeb500000000000000000000000000000000000000000000000000000000815260040160405180910390fd5b6002600181905550565b60018081905550565b60008060009054906101000a900473ffffffffffffffffffffffffffffffffffffffff169050816000806101000a81548173ffffffffffffffffffffffffffffffffffffffff021916908373ffffffffffffffffffffffffffffffffffffffff1602179055508173ffffffffffffffffffffffffffffffffffffffff168173ffffffffffffffffffffffffffffffffffffffff167f8be0079c531659141344cd1fd0a4f28419497f9722a3daafe3b4186f6b6457e060405160405180910390a35050565b600033905090565b600080fd5b6000819050919050565b6129ed816129da565b81146129f857600080fd5b50565b600081359050612a0a816129e4565b92915050565b600080600060608486031215612a2957612a286129d5565b5b6000612a37868287016129fb565b9350506020612a48868287016129fb565b9250506040612a59868287016129fb565b9150509250925092565b612a6c816129da565b82525050565b6000602082019050612a876000830184612a63565b92915050565b600073ffffffffffffffffffffffffffffffffffffffff82169050919050565b6000612ab882612a8d565b9050919050565b612ac881612aad565b8114612ad357600080fd5b50565b600081359050612ae581612abf565b92915050565b600060208284031215612b0157612b006129d5565b5b6000612b0f84828501612ad6565b91505092915050565b6000819050919050565b6000612b3d612b38612b3384612a8d565b612b18565b612a8d565b9050919050565b6000612b4f82612b22565b9050919050565b6000612b6182612b44565b9050919050565b612b7181612b56565b82525050565b6000602082019050612b8c6000830184612b68565b92915050565b600081519050919050565b600082825260208201905092915050565b6000819050602082019050919050565b612bc781612aad565b82525050565b6000612bd98383612bbe565b60208301905092915050565b6000602082019050919050565b6000612bfd82612b92565b612c078185612b9d565b9350612c1283612bae565b8060005b83811015612c43578151612c2a8882612bcd565b9750612c3583612be5565b925050600181019050612c16565b5085935050505092915050565b60006020820190508181036000830152612c6a8184612bf2565b905092915050565b60008115159050919050565b612c8781612c72565b8114612c9257600080fd5b50565b600081359050612ca481612c7e565b92915050565b600060208284031215612cc057612cbf6129d5565b5b6000612cce84828501612c95565b91505092915050565b612ce081612c72565b82525050565b6000602082019050612cfb6000830184612cd7565b92915050565b60008060408385031215612d1857612d176129d5565b5b6000612d2685828601612ad6565b9250506020612d3785828601612ad6565b9150509250929050565b600060208284031215612d5757612d566129d5565b5b6000612d65848285016129fb565b91505092915050565b612d7781612aad565b82525050565b6000602082019050612d926000830184612d6e565b92915050565b6000819050919050565b612dab81612d98565b8114612db657600080fd5b50565b600081359050612dc881612da2565b92915050565b600060208284031215612de457612de36129d5565b5b6000612df284828501612db9565b91505092915050565b600060a082019050612e106000830188612d6e565b612e1d6020830187612a63565b612e2a6040830186612a63565b612e376060830185612a63565b612e446080830184612cd7565b9695505050505050565b60008060408385031215612e6557612e646129d5565b5b6000612e73858286016129fb565b9250506020612e84858286016129fb565b9150509250929050565b600080600060608486031215612ea757612ea66129d5565b5b6000612eb586828701612ad6565b9350506020612ec6868287016129fb565b9250506040612ed7868287016129fb565b9150509250925092565b600081519050919050565b600082825260208201905092915050565b6000819050602082019050919050565b612f1681612d98565b82525050565b6000612f288383612f0d565b60208301905092915050565b6000602082019050919050565b6000612f4c82612ee1565b612f568185612eec565b9350612f6183612efd565b8060005b83811015612f92578151612f798882612f1c565b9750612f8483612f34565b925050600181019050612f65565b5085935050505092915050565b60006020820190508181036000830152612fb98184612f41565b905092915050565b600082825260208201905092915050565b7f496e76616c696420696e70757420616d6f756e74000000000000000000000000600082015250565b6000613008601483612fc1565b915061301382612fd2565b602082019050919050565b6000602082019050818103600083015261303781612ffb565b9050919050565b7f4e487b7100000000000000000000000000000000000000000000000000000000600052601160045260246000fd5b6000613078826129da565b9150613083836129da565b9250828202613091816129da565b915082820484148315176130a8576130a761303e565b5b5092915050565b60006130ba826129da565b91506130c5836129da565b92508282019050808211156130dd576130dc61303e565b5b92915050565b7f4e487b7100000000000000000000000000000000000000000000000000000000600052601260045260246000fd5b600061311d826129da565b9150613128836129da565b925082613138576131376130e3565b5b828204905092915050565b7f4c697175696469747920706f6f6c206e6f7420696e697469616c697a65640000600082015250565b6000613179601e83612fc1565b915061318482613143565b602082019050919050565b600060208201905081810360008301526131a88161316c565b9050919050565b60006131ba826129da565b91506131c5836129da565b92508282039050818111156131dd576131dc61303e565b5b92915050565b7f416c726561647920696e697469616c697a656400000000000000000000000000600082015250565b6000613219601383612fc1565b9150613224826131e3565b602082019050919050565b600060208201905081810360008301526132488161320c565b9050919050565b7f496e76616c696420746f6b656e20616464726573736573000000000000000000600082015250565b6000613285601783612fc1565b91506132908261324f565b602082019050919050565b600060208201905081810360008301526132b481613278565b9050919050565b7f4e6f206c69717569646974792070726f76696465640000000000000000000000600082015250565b60006132f1601583612fc1565b91506132fc826132bb565b602082019050919050565b60006020820190508181036000830152613320816132e4565b9050919050565b7f4e6f207265776172647320617661696c61626c65000000000000000000000000600082015250565b600061335d601483612fc1565b915061336882613327565b602082019050919050565b6000602082019050818103600083015261338c81613350565b9050919050565b60006040820190506133a86000830185612d6e565b6133b56020830184612a63565b9392505050565b6000815190506133cb81612c7e565b92915050565b6000602082840312156133e7576133e66129d5565b5b60006133f5848285016133bc565b91505092915050565b7f526577617264207472616e73666572206661696c656400000000000000000000600082015250565b6000613434601683612fc1565b915061343f826133fe565b602082019050919050565b6000602082019050818103600083015261346381613427565b9050919050565b7f416d6f756e7473206d7573742062652067726561746572207468616e207a657260008201527f6f00000000000000000000000000000000000000000000000000000000000000602082015250565b60006134c6602183612fc1565b91506134d18261346a565b604082019050919050565b600060208201905081810360008301526134f5816134b9565b9050919050565b60006060820190506135116000830186612d6e565b61351e6020830185612d6e565b61352b6040830184612a63565b949350505050565b7f546f6b656e31207472616e73666572206661696c656400000000000000000000600082015250565b6000613569601683612fc1565b915061357482613533565b602082019050919050565b600060208201905081810360008301526135988161355c565b9050919050565b7f546f6b656e32207472616e73666572206661696c656400000000000000000000600082015250565b60006135d5601683612fc1565b91506135e08261359f565b602082019050919050565b60006020820190508181036000830152613604816135c8565b9050919050565b60006040820190506136206000830185612a63565b61362d6020830184612a63565b9392505050565b7f416d6f756e74206d7573742062652067726561746572207468616e207a65726f600082015250565b600061366a602083612fc1565b915061367582613634565b602082019050919050565b600060208201905081810360008301526136998161365d565b9050919050565b7f526577617264206465706f736974206661696c65640000000000000000000000600082015250565b60006136d6601583612fc1565b91506136e1826136a0565b602082019050919050565b60006020820190508181036000830152613705816136c9565b9050919050565b7f496e73756666696369656e74206c697175696469747920696e20746f6b656e31600082015250565b6000613742602083612fc1565b915061374d8261370c565b602082019050919050565b6000602082019050818103600083015261377181613735565b9050919050565b7f496e73756666696369656e74206c697175696469747920696e20746f6b656e32600082015250565b60006137ae602083612fc1565b91506137b982613778565b602082019050919050565b600060208201905081810360008301526137dd816137a1565b9050919050565b7f496e76616c696420746f6b656e00000000000000000000000000000000000000600082015250565b600061381a600d83612fc1565b9150613825826137e4565b602082019050919050565b600060208201905081810360008301526138498161380d565b9050919050565b7f536c6970706167652070726f74656374696f6e206661696c6564000000000000600082015250565b6000613886601a83612fc1565b915061389182613850565b602082019050919050565b600060208201905081810360008301526138b581613879565b9050919050565b7f546f6b656e207472616e73666572206661696c65640000000000000000000000600082015250565b60006138f2601583612fc1565b91506138fd826138bc565b602082019050919050565b60006020820190508181036000830152613921816138e5565b9050919050565b60008160601b9050919050565b600061394082613928565b9050919050565b600061395282613935565b9050919050565b61396a61396582612aad565b613947565b82525050565b6000819050919050565b61398b613986826129da565b613970565b82525050565b600061399d8287613959565b6014820191506139ad828661397a565b6020820191506139bd828561397a565b6020820191506139cd828461397a565b60208201915081905095945050505050565b60006060820190506139f46000830186612a63565b613a016020830185612a63565b613a0e6040830184612cd7565b949350505050565b7f556e617574686f72697a6564207472616e73616374696f6e2072657665616c00600082015250565b6000613a4c601f83612fc1565b9150613a5782613a16565b602082019050919050565b60006020820190508181036000830152613a7b81613a3f565b9050919050565b7f52657665616c2064656c6179206e6f74206d6574000000000000000000000000600082015250565b6000613ab8601483612fc1565b9150613ac382613a82565b602082019050919050565b60006020820190508181036000830152613ae781613aab565b9050919050565b7f4e487b7100000000000000000000000000000000000000000000000000000000600052604160045260246000fd5b7f4e487b7100000000000000000000000000000000000000000000000000000000600052603260045260246000fd5b6000613b588285613959565b601482019150613b688284613959565b6014820191508190509392505050565b6000613b83826129da565b91507fffffffffffffffffffffffffffffffffffffffffffffffffffffffffffffffff8203613bb557613bb461303e565b5b60018201905091905056fea2646970667358221220e80aa255fbd810e92a88717164e6ba5e6ad49a99924cd15b3fbb4b0bc7b2edba64736f6c63430008140033a26469706673582212200614a2625c3294b10621f302eb6dce1e2e92501f9c6299f3dca8e1adf655f61564736f6c63430008140033",
  "linkReferences": {},
  "deployedLinkReferences": {}
}