{
  "_format": "hh-sol-artifact-1",
  "contractName": "AngelToken",
  "sourceName": "contracts/AngelToken.sol",
  "abi": [
    {
      "inputs": [
        {
          "internalType": "uint256",
          "name": "initialSupply",
          "type": "uint256"
        }
      ],
      "stateMutability": "nonpayable",
      "type": "constructor"
    },
    {
      "inputs": [
        {
          "internalType": "address",
          "name": "spender",
          "type": "address"
        },
        {
          "internalType": "uint256",
          "name": "allowance",
          "type": "uint256"
        },
        {
          "internalType": "uint256",
          "name": "needed",
          "type": "uint256"
        }
      ],
      "name": "ERC20InsufficientAllowance",
      "type": "error"
    },
    {
      "inputs": [
        {
          "internalType": "address",
          "name": "sender",
          "type": "address"
        },
        {
          "internalType": "uint256",
          "name": "balance",
          "type": "uint256"
        },
        {
          "internalType": "uint256",
          "name": "needed",
          "type": "uint256"
        }
      ],
      "name": "ERC20InsufficientBalance",
      "type": "error"
    },
    {
      "inputs": [
        {
          "internalType": "address",
          "name": "approver",
          "type": "address"
        }
      ],
      "name": "ERC20InvalidApprover",
      "type": "error"
    },
    {
      "inputs": [
        {
          "internalType": "address",
          "name": "receiver",
          "type": "address"
        }
      ],
      "name": "ERC20InvalidReceiver",
      "type": "error"
    },
    {
      "inputs": [
        {
          "internalType": "address",
          "name": "sender",
          "type": "address"
        }
      ],
      "name": "ERC20InvalidSender",
      "type": "error"
    },
    {
      "inputs": [
        {
          "internalType": "address",
          "name": "spender",
          "type": "address"
        }
      ],
      "name": "ERC20InvalidSpender",
      "type": "error"
    },
    {
      "inputs": [
        {
          "internalType": "address",
          "name": "owner",
          "type": "address"
        }
      ],
      "name": "OwnableInvalidOwner",
      "type": "error"
    },
    {
      "inputs": [
        {
          "internalType": "address",
          "name": "account",
          "type": "address"
        }
      ],
      "name": "OwnableUnauthorizedAccount",
      "type": "error"
    },
    {
      "anonymous": false,
      "inputs": [
        {
          "indexed": true,
          "internalType": "address",
          "name": "owner",
          "type": "address"
        },
        {
          "indexed": true,
          "internalType": "address",
          "name": "spender",
          "type": "address"
        },
        {
          "indexed": false,
          "internalType": "uint256",
          "name": "value",
          "type": "uint256"
        }
      ],
      "name": "Approval",
      "type": "event"
    },
    {
      "anonymous": false,
      "inputs": [
        {
          "indexed": true,
          "internalType": "address",
          "name": "faucet",
          "type": "address"
        }
      ],
      "name": "FaucetAddressSet",
      "type": "event"
    },
    {
      "anonymous": false,
      "inputs": [
        {
          "indexed": true,
          "internalType": "address",
          "name": "liquidityPool",
          "type": "address"
        }
      ],
      "name": "LiquidityPoolAddressSet",
      "type": "event"
    },
    {
      "anonymous": false,
      "inputs": [
        {
          "indexed": true,
          "internalType": "address",
          "name": "to",
          "type": "address"
        },
        {
          "indexed": false,
          "internalType": "uint256",
          "name": "amount",
          "type": "uint256"
        }
      ],
      "name": "Mint",
      "type": "event"
    },
    {
      "anonymous": false,
      "inputs": [
        {
          "indexed": true,
          "internalType": "address",
          "name": "previousOwner",
          "type": "address"
        },
        {
          "indexed": true,
          "internalType": "address",
          "name": "newOwner",
          "type": "address"
        }
      ],
      "name": "OwnershipTransferred",
      "type": "event"
    },
    {
      "anonymous": false,
      "inputs": [
        {
          "indexed": true,
          "internalType": "address",
          "name": "from",
          "type": "address"
        },
        {
          "indexed": true,
          "internalType": "address",
          "name": "to",
          "type": "address"
        },
        {
          "indexed": false,
          "internalType": "uint256",
          "name": "value",
          "type": "uint256"
        }
      ],
      "name": "Transfer",
      "type": "event"
    },
    {
      "inputs": [
        {
          "internalType": "uint256",
          "name": "newRate",
          "type": "uint256"
        }
      ],
      "name": "adjustMintRate",
      "outputs": [],
      "stateMutability": "nonpayable",
      "type": "function"
    },
    {
      "inputs": [
        {
          "internalType": "address",
          "name": "owner",
          "type": "address"
        },
        {
          "internalType": "address",
          "name": "spender",
          "type": "address"
        }
      ],
      "name": "allowance",
      "outputs": [
        {
          "internalType": "uint256",
          "name": "",
          "type": "uint256"
        }
      ],
      "stateMutability": "view",
      "type": "function"
    },
    {
      "inputs": [
        {
          "internalType": "address",
          "name": "spender",
          "type": "address"
        },
        {
          "internalType": "uint256",
          "name": "value",
          "type": "uint256"
        }
      ],
      "name": "approve",
      "outputs": [
        {
          "internalType": "bool",
          "name": "",
          "type": "bool"
        }
      ],
      "stateMutability": "nonpayable",
      "type": "function"
    },
    {
      "inputs": [
        {
          "internalType": "address",
          "name": "account",
          "type": "address"
        }
      ],
      "name": "balanceOf",
      "outputs": [
        {
          "internalType": "uint256",
          "name": "",
          "type": "uint256"
        }
      ],
      "stateMutability": "view",
      "type": "function"
    },
    {
      "inputs": [],
      "name": "circulatingSupply",
      "outputs": [
        {
          "internalType": "uint256",
          "name": "",
          "type": "uint256"
        }
      ],
      "stateMutability": "view",
      "type": "function"
    },
    {
      "inputs": [],
      "name": "decimals",
      "outputs": [
        {
          "internalType": "uint8",
          "name": "",
          "type": "uint8"
        }
      ],
      "stateMutability": "view",
      "type": "function"
    },
    {
      "inputs": [],
      "name": "faucetAddress",
      "outputs": [
        {
          "internalType": "address",
          "name": "",
          "type": "address"
        }
      ],
      "stateMutability": "view",
      "type": "function"
    },
    {
      "inputs": [],
      "name": "getTotalSupply",
      "outputs": [
        {
          "internalType": "uint256",
          "name": "",
          "type": "uint256"
        }
      ],
      "stateMutability": "view",
      "type": "function"
    },
    {
      "inputs": [],
      "name": "liquidityPoolAddress",
      "outputs": [
        {
          "internalType": "address",
          "name": "",
          "type": "address"
        }
      ],
      "stateMutability": "view",
      "type": "function"
    },
    {
      "inputs": [
        {
          "internalType": "address",
          "name": "to",
          "type": "address"
        },
        {
          "internalType": "uint256",
          "name": "amount",
          "type": "uint256"
        }
      ],
      "name": "mint",
      "outputs": [],
      "stateMutability": "nonpayable",
      "type": "function"
    },
    {
      "inputs": [],
      "name": "mintRate",
      "outputs": [
        {
          "internalType": "uint256",
          "name": "",
          "type": "uint256"
        }
      ],
      "stateMutability": "view",
      "type": "function"
    },
    {
      "inputs": [],
      "name": "name",
      "outputs": [
        {
          "internalType": "string",
          "name": "",
          "type": "string"
        }
      ],
      "stateMutability": "view",
      "type": "function"
    },
    {
      "inputs": [],
      "name": "owner",
      "outputs": [
        {
          "internalType": "address",
          "name": "",
          "type": "address"
        }
      ],
      "stateMutability": "view",
      "type": "function"
    },
    {
      "inputs": [],
      "name": "renounceOwnership",
      "outputs": [],
      "stateMutability": "nonpayable",
      "type": "function"
    },
    {
      "inputs": [
        {
          "internalType": "address",
          "name": "_faucetAddress",
          "type": "address"
        }
      ],
      "name": "setFaucetAddress",
      "outputs": [],
      "stateMutability": "nonpayable",
      "type": "function"
    },
    {
      "inputs": [
        {
          "internalType": "address",
          "name": "_liquidityPoolAddress",
          "type": "address"
        }
      ],
      "name": "setLiquidityPoolAddress",
      "outputs": [],
      "stateMutability": "nonpayable",
      "type": "function"
    },
    {
      "inputs": [],
      "name": "symbol",
      "outputs": [
        {
          "internalType": "string",
          "name": "",
          "type": "string"
        }
      ],
      "stateMutability": "view",
      "type": "function"
    },
    {
      "inputs": [],
      "name": "totalSupply",
      "outputs": [
        {
          "internalType": "uint256",
          "name": "",
          "type": "uint256"
        }
      ],
      "stateMutability": "view",
      "type": "function"
    },
    {
      "inputs": [
        {
          "internalType": "address",
          "name": "to",
          "type": "address"
        },
        {
          "internalType": "uint256",
          "name": "value",
          "type": "uint256"
        }
      ],
      "name": "transfer",
      "outputs": [
        {
          "internalType": "bool",
          "name": "",
          "type": "bool"
        }
      ],
      "stateMutability": "nonpayable",
      "type": "function"
    },
    {
      "inputs": [
        {
          "internalType": "address",
          "name": "from",
          "type": "address"
        },
        {
          "internalType": "address",
          "name": "to",
          "type": "address"
        },
        {
          "internalType": "uint256",
          "name": "value",
          "type": "uint256"
        }
      ],
      "name": "transferFrom",
      "outputs": [
        {
          "internalType": "bool",
          "name": "",
          "type": "bool"
        }
      ],
      "stateMutability": "nonpayable",
      "type": "function"
    },
    {
      "inputs": [
        {
          "internalType": "address",
          "name": "newOwner",
          "type": "address"
        }
      ],
      "name": "transferOwnership",
      "outputs": [],
      "stateMutability": "nonpayable",
      "type": "function"
    }
  ],
  "bytecode": "0x60806040526103e860065534801561001657600080fd5b506040516123003803806123008339818101604052810190610038919061050d565b336040518060400160405280600a81526020017f416e67656c546f6b656e000000000000000000000000000000000000000000008152506040518060400160405280600581526020017f414e47454c00000000000000000000000000000000000000000000000000000081525081600390816100b49190610780565b5080600490816100c49190610780565b505050600073ffffffffffffffffffffffffffffffffffffffff168173ffffffffffffffffffffffffffffffffffffffff16036101395760006040517f1e4fbdf70000000000000000000000000000000000000000000000000000000081526004016101309190610893565b60405180910390fd5b6101488161015f60201b60201c565b50610159338261022560201b60201c565b50610972565b6000600560009054906101000a900473ffffffffffffffffffffffffffffffffffffffff16905081600560006101000a81548173ffffffffffffffffffffffffffffffffffffffff021916908373ffffffffffffffffffffffffffffffffffffffff1602179055508173ffffffffffffffffffffffffffffffffffffffff168173ffffffffffffffffffffffffffffffffffffffff167f8be0079c531659141344cd1fd0a4f28419497f9722a3daafe3b4186f6b6457e060405160405180910390a35050565b600073ffffffffffffffffffffffffffffffffffffffff168273ffffffffffffffffffffffffffffffffffffffff16036102975760006040517fec442f0500000000000000000000000000000000000000000000000000000000815260040161028e9190610893565b60405180910390fd5b6102a9600083836102ad60201b60201c565b5050565b600073ffffffffffffffffffffffffffffffffffffffff168373ffffffffffffffffffffffffffffffffffffffff16036102ff5780600260008282546102f391906108dd565b925050819055506103d2565b60008060008573ffffffffffffffffffffffffffffffffffffffff1673ffffffffffffffffffffffffffffffffffffffff1681526020019081526020016000205490508181101561038b578381836040517fe450d38c00000000000000000000000000000000000000000000000000000000815260040161038293929190610920565b60405180910390fd5b8181036000808673ffffffffffffffffffffffffffffffffffffffff1673ffffffffffffffffffffffffffffffffffffffff16815260200190815260200160002081905550505b600073ffffffffffffffffffffffffffffffffffffffff168273ffffffffffffffffffffffffffffffffffffffff160361041b5780600260008282540392505081905550610468565b806000808473ffffffffffffffffffffffffffffffffffffffff1673ffffffffffffffffffffffffffffffffffffffff168152602001908152602001600020600082825401925050819055505b8173ffffffffffffffffffffffffffffffffffffffff168373ffffffffffffffffffffffffffffffffffffffff167fddf252ad1be2c89b69c2b068fc378daa952ba7f163c4a11628f55a4df523b3ef836040516104c59190610957565b60405180910390a3505050565b600080fd5b6000819050919050565b6104ea816104d7565b81146104f557600080fd5b50565b600081519050610507816104e1565b92915050565b600060208284031215610523576105226104d2565b5b6000610531848285016104f8565b91505092915050565b600081519050919050565b7f4e487b7100000000000000000000000000000000000000000000000000000000600052604160045260246000fd5b7f4e487b7100000000000000000000000000000000000000000000000000000000600052602260045260246000fd5b600060028204905060018216806105bb57607f821691505b6020821081036105ce576105cd610574565b5b50919050565b60008190508160005260206000209050919050565b60006020601f8301049050919050565b600082821b905092915050565b6000600883026106367fffffffffffffffffffffffffffffffffffffffffffffffffffffffffffffffff826105f9565b61064086836105f9565b95508019841693508086168417925050509392505050565b6000819050919050565b600061067d610678610673846104d7565b610658565b6104d7565b9050919050565b6000819050919050565b61069783610662565b6106ab6106a382610684565b848454610606565b825550505050565b600090565b6106c06106b3565b6106cb81848461068e565b505050565b5b818110156106ef576106e46000826106b8565b6001810190506106d1565b5050565b601f82111561073457610705816105d4565b61070e846105e9565b8101602085101561071d578190505b610731610729856105e9565b8301826106d0565b50505b505050565b600082821c905092915050565b600061075760001984600802610739565b1980831691505092915050565b60006107708383610746565b9150826002028217905092915050565b6107898261053a565b67ffffffffffffffff8111156107a2576107a1610545565b5b6107ac82546105a3565b6107b78282856106f3565b600060209050601f8311600181146107ea57600084156107d8578287015190505b6107e28582610764565b86555061084a565b601f1984166107f8866105d4565b60005b82811015610820578489015182556001820191506020850194506020810190506107fb565b8683101561083d5784890151610839601f891682610746565b8355505b6001600288020188555050505b505050505050565b600073ffffffffffffffffffffffffffffffffffffffff82169050919050565b600061087d82610852565b9050919050565b61088d81610872565b82525050565b60006020820190506108a86000830184610884565b92915050565b7f4e487b7100000000000000000000000000000000000000000000000000000000600052601160045260246000fd5b60006108e8826104d7565b91506108f3836104d7565b925082820190508082111561090b5761090a6108ae565b5b92915050565b61091a816104d7565b82525050565b60006060820190506109356000830186610884565b6109426020830185610911565b61094f6040830184610911565b949350505050565b600060208201905061096c6000830184610911565b92915050565b61197f806109816000396000f3fe608060405234801561001057600080fd5b50600436106101375760003560e01c80638da5cb5b116100b8578063ca0dcf161161007c578063ca0dcf161461032c578063cb0524001461034a578063d25b17b614610368578063dd62ed3e14610386578063f1e0510e146103b6578063f2fde38b146103d257610137565b80638da5cb5b146102845780639358928b146102a257806395d89b41146102c0578063a9059cbb146102de578063c4e41b221461030e57610137565b806340c10f19116100ff57806340c10f19146101f657806363986aba1461021257806370a082311461022e578063715018a61461025e5780638bf03d261461026857610137565b806306fdde031461013c578063095ea7b31461015a57806318160ddd1461018a57806323b872dd146101a8578063313ce567146101d8575b600080fd5b6101446103ee565b6040516101519190611376565b60405180910390f35b610174600480360381019061016f9190611431565b610480565b604051610181919061148c565b60405180910390f35b6101926104a3565b60405161019f91906114b6565b60405180910390f35b6101c260048036038101906101bd91906114d1565b6104ad565b6040516101cf919061148c565b60405180910390f35b6101e06104dc565b6040516101ed9190611540565b60405180910390f35b610210600480360381019061020b9190611431565b6104e5565b005b61022c6004803603810190610227919061155b565b6105fb565b005b6102486004803603810190610243919061155b565b6106f9565b60405161025591906114b6565b60405180910390f35b610266610741565b005b610282600480360381019061027d9190611588565b610755565b005b61028c6107aa565b60405161029991906115c4565b60405180910390f35b6102aa6107d4565b6040516102b791906114b6565b60405180910390f35b6102c8610858565b6040516102d59190611376565b60405180910390f35b6102f860048036038101906102f39190611431565b6108ea565b604051610305919061148c565b60405180910390f35b61031661090d565b60405161032391906114b6565b60405180910390f35b61033461091c565b60405161034191906114b6565b60405180910390f35b610352610922565b60405161035f91906115c4565b60405180910390f35b610370610948565b60405161037d91906115c4565b60405180910390f35b6103a0600480360381019061039b91906115df565b61096e565b6040516103ad91906114b6565b60405180910390f35b6103d060048036038101906103cb919061155b565b6109f5565b005b6103ec60048036038101906103e7919061155b565b610af3565b005b6060600380546103fd9061164e565b80601f01602080910402602001604051908101604052809291908181526020018280546104299061164e565b80156104765780601f1061044b57610100808354040283529160200191610476565b820191906000526020600020905b81548152906001019060200180831161045957829003601f168201915b5050505050905090565b60008061048b610b79565b9050610498818585610b81565b600191505092915050565b6000600254905090565b6000806104b8610b79565b90506104c5858285610b93565b6104d0858585610c27565b60019150509392505050565b60006012905090565b6104ed610d1b565b600073ffffffffffffffffffffffffffffffffffffffff168273ffffffffffffffffffffffffffffffffffffffff160361055c576040517f08c379a0000000000000000000000000000000000000000000000000000000008152600401610553906116cb565b60405180910390fd5b6000811161059f576040517f08c379a00000000000000000000000000000000000000000000000000000000081526004016105969061175d565b60405180910390fd5b6105a98282610da2565b8173ffffffffffffffffffffffffffffffffffffffff167f0f6798a560793a54c3bcfe86a93cde1e73087d944c0ea20544137d4121396885826040516105ef91906114b6565b60405180910390a25050565b610603610d1b565b600073ffffffffffffffffffffffffffffffffffffffff168173ffffffffffffffffffffffffffffffffffffffff1603610672576040517f08c379a0000000000000000000000000000000000000000000000000000000008152600401610669906117c9565b60405180910390fd5b80600860006101000a81548173ffffffffffffffffffffffffffffffffffffffff021916908373ffffffffffffffffffffffffffffffffffffffff1602179055508073ffffffffffffffffffffffffffffffffffffffff167f5c2864aa3bb1572743f1a845176dfbd5e55497061d1b405556406b1e38bfa9cd60405160405180910390a250565b60008060008373ffffffffffffffffffffffffffffffffffffffff1673ffffffffffffffffffffffffffffffffffffffff168152602001908152602001600020549050919050565b610749610d1b565b6107536000610e24565b565b61075d610d1b565b600081116107a0576040517f08c379a00000000000000000000000000000000000000000000000000000000081526004016107979061185b565b60405180910390fd5b8060068190555050565b6000600560009054906101000a900473ffffffffffffffffffffffffffffffffffffffff16905090565b600080610802600760009054906101000a900473ffffffffffffffffffffffffffffffffffffffff166106f9565b90506000610831600860009054906101000a900473ffffffffffffffffffffffffffffffffffffffff166106f9565b9050808261083d6104a3565b61084791906118aa565b61085191906118aa565b9250505090565b6060600480546108679061164e565b80601f01602080910402602001604051908101604052809291908181526020018280546108939061164e565b80156108e05780601f106108b5576101008083540402835291602001916108e0565b820191906000526020600020905b8154815290600101906020018083116108c357829003601f168201915b5050505050905090565b6000806108f5610b79565b9050610902818585610c27565b600191505092915050565b60006109176104a3565b905090565b60065481565b600760009054906101000a900473ffffffffffffffffffffffffffffffffffffffff1681565b600860009054906101000a900473ffffffffffffffffffffffffffffffffffffffff1681565b6000600160008473ffffffffffffffffffffffffffffffffffffffff1673ffffffffffffffffffffffffffffffffffffffff16815260200190815260200160002060008373ffffffffffffffffffffffffffffffffffffffff1673ffffffffffffffffffffffffffffffffffffffff16815260200190815260200160002054905092915050565b6109fd610d1b565b600073ffffffffffffffffffffffffffffffffffffffff168173ffffffffffffffffffffffffffffffffffffffff1603610a6c576040517f08c379a0000000000000000000000000000000000000000000000000000000008152600401610a63906117c9565b60405180910390fd5b80600760006101000a81548173ffffffffffffffffffffffffffffffffffffffff021916908373ffffffffffffffffffffffffffffffffffffffff1602179055508073ffffffffffffffffffffffffffffffffffffffff167fb5483b9a71ec7d7a1c43c869c1dd726e9de0115060519ac50eba1f5e16cfd7c560405160405180910390a250565b610afb610d1b565b600073ffffffffffffffffffffffffffffffffffffffff168173ffffffffffffffffffffffffffffffffffffffff1603610b6d5760006040517f1e4fbdf7000000000000000000000000000000000000000000000000000000008152600401610b6491906115c4565b60405180910390fd5b610b7681610e24565b50565b600033905090565b610b8e8383836001610eea565b505050565b6000610b9f848461096e565b90507fffffffffffffffffffffffffffffffffffffffffffffffffffffffffffffffff8114610c215781811015610c11578281836040517ffb8f41b2000000000000000000000000000000000000000000000000000000008152600401610c08939291906118de565b60405180910390fd5b610c2084848484036000610eea565b5b50505050565b600073ffffffffffffffffffffffffffffffffffffffff168373ffffffffffffffffffffffffffffffffffffffff1603610c995760006040517f96c6fd1e000000000000000000000000000000000000000000000000000000008152600401610c9091906115c4565b60405180910390fd5b600073ffffffffffffffffffffffffffffffffffffffff168273ffffffffffffffffffffffffffffffffffffffff1603610d0b5760006040517fec442f05000000000000000000000000000000000000000000000000000000008152600401610d0291906115c4565b60405180910390fd5b610d168383836110c1565b505050565b610d23610b79565b73ffffffffffffffffffffffffffffffffffffffff16610d416107aa565b73ffffffffffffffffffffffffffffffffffffffff1614610da057610d64610b79565b6040517f118cdaa7000000000000000000000000000000000000000000000000000000008152600401610d9791906115c4565b60405180910390fd5b565b600073ffffffffffffffffffffffffffffffffffffffff168273ffffffffffffffffffffffffffffffffffffffff1603610e145760006040517fec442f05000000000000000000000000000000000000000000000000000000008152600401610e0b91906115c4565b60405180910390fd5b610e20600083836110c1565b5050565b6000600560009054906101000a900473ffffffffffffffffffffffffffffffffffffffff16905081600560006101000a81548173ffffffffffffffffffffffffffffffffffffffff021916908373ffffffffffffffffffffffffffffffffffffffff1602179055508173ffffffffffffffffffffffffffffffffffffffff168173ffffffffffffffffffffffffffffffffffffffff167f8be0079c531659141344cd1fd0a4f28419497f9722a3daafe3b4186f6b6457e060405160405180910390a35050565b600073ffffffffffffffffffffffffffffffffffffffff168473ffffffffffffffffffffffffffffffffffffffff1603610f5c5760006040517fe602df05000000000000000000000000000000000000000000000000000000008152600401610f5391906115c4565b60405180910390fd5b600073ffffffffffffffffffffffffffffffffffffffff168373ffffffffffffffffffffffffffffffffffffffff1603610fce5760006040517f94280d62000000000000000000000000000000000000000000000000000000008152600401610fc591906115c4565b60405180910390fd5b81600160008673ffffffffffffffffffffffffffffffffffffffff1673ffffffffffffffffffffffffffffffffffffffff16815260200190815260200160002060008573ffffffffffffffffffffffffffffffffffffffff1673ffffffffffffffffffffffffffffffffffffffff1681526020019081526020016000208190555080156110bb578273ffffffffffffffffffffffffffffffffffffffff168473ffffffffffffffffffffffffffffffffffffffff167f8c5be1e5ebec7d5bd14f71427d1e84f3dd0314c0f7b2291e5b200ac8c7c3b925846040516110b291906114b6565b60405180910390a35b50505050565b600073ffffffffffffffffffffffffffffffffffffffff168373ffffffffffffffffffffffffffffffffffffffff16036111135780600260008282546111079190611915565b925050819055506111e6565b60008060008573ffffffffffffffffffffffffffffffffffffffff1673ffffffffffffffffffffffffffffffffffffffff1681526020019081526020016000205490508181101561119f578381836040517fe450d38c000000000000000000000000000000000000000000000000000000008152600401611196939291906118de565b60405180910390fd5b8181036000808673ffffffffffffffffffffffffffffffffffffffff1673ffffffffffffffffffffffffffffffffffffffff16815260200190815260200160002081905550505b600073ffffffffffffffffffffffffffffffffffffffff168273ffffffffffffffffffffffffffffffffffffffff160361122f578060026000828254039250508190555061127c565b806000808473ffffffffffffffffffffffffffffffffffffffff1673ffffffffffffffffffffffffffffffffffffffff168152602001908152602001600020600082825401925050819055505b8173ffffffffffffffffffffffffffffffffffffffff168373ffffffffffffffffffffffffffffffffffffffff167fddf252ad1be2c89b69c2b068fc378daa952ba7f163c4a11628f55a4df523b3ef836040516112d991906114b6565b60405180910390a3505050565b600081519050919050565b600082825260208201905092915050565b60005b83811015611320578082015181840152602081019050611305565b60008484015250505050565b6000601f19601f8301169050919050565b6000611348826112e6565b61135281856112f1565b9350611362818560208601611302565b61136b8161132c565b840191505092915050565b60006020820190508181036000830152611390818461133d565b905092915050565b600080fd5b600073ffffffffffffffffffffffffffffffffffffffff82169050919050565b60006113c88261139d565b9050919050565b6113d8816113bd565b81146113e357600080fd5b50565b6000813590506113f5816113cf565b92915050565b6000819050919050565b61140e816113fb565b811461141957600080fd5b50565b60008135905061142b81611405565b92915050565b6000806040838503121561144857611447611398565b5b6000611456858286016113e6565b92505060206114678582860161141c565b9150509250929050565b60008115159050919050565b61148681611471565b82525050565b60006020820190506114a1600083018461147d565b92915050565b6114b0816113fb565b82525050565b60006020820190506114cb60008301846114a7565b92915050565b6000806000606084860312156114ea576114e9611398565b5b60006114f8868287016113e6565b9350506020611509868287016113e6565b925050604061151a8682870161141c565b9150509250925092565b600060ff82169050919050565b61153a81611524565b82525050565b60006020820190506115556000830184611531565b92915050565b60006020828403121561157157611570611398565b5b600061157f848285016113e6565b91505092915050565b60006020828403121561159e5761159d611398565b5b60006115ac8482850161141c565b91505092915050565b6115be816113bd565b82525050565b60006020820190506115d960008301846115b5565b92915050565b600080604083850312156115f6576115f5611398565b5b6000611604858286016113e6565b9250506020611615858286016113e6565b9150509250929050565b7f4e487b7100000000000000000000000000000000000000000000000000000000600052602260045260246000fd5b6000600282049050600182168061166657607f821691505b6020821081036116795761167861161f565b5b50919050565b7f43616e6e6f74206d696e7420746f20746865207a65726f206164647265737300600082015250565b60006116b5601f836112f1565b91506116c08261167f565b602082019050919050565b600060208201905081810360008301526116e4816116a8565b9050919050565b7f4d696e7420616d6f756e74206d7573742062652067726561746572207468616e60008201527f207a65726f000000000000000000000000000000000000000000000000000000602082015250565b60006117476025836112f1565b9150611752826116eb565b604082019050919050565b600060208201905081810360008301526117768161173a565b9050919050565b7f496e76616c696420616464726573730000000000000000000000000000000000600082015250565b60006117b3600f836112f1565b91506117be8261177d565b602082019050919050565b600060208201905081810360008301526117e2816117a6565b9050919050565b7f4d696e742072617465206d7573742062652067726561746572207468616e207a60008201527f65726f0000000000000000000000000000000000000000000000000000000000602082015250565b60006118456023836112f1565b9150611850826117e9565b604082019050919050565b6000602082019050818103600083015261187481611838565b9050919050565b7f4e487b7100000000000000000000000000000000000000000000000000000000600052601160045260246000fd5b60006118b5826113fb565b91506118c0836113fb565b92508282039050818111156118d8576118d761187b565b5b92915050565b60006060820190506118f360008301866115b5565b61190060208301856114a7565b61190d60408301846114a7565b949350505050565b6000611920826113fb565b915061192b836113fb565b92508282019050808211156119435761194261187b565b5b9291505056fea26469706673582212201f92124b1ef95347cc77b3d29a7ebdf7d6a62d0bc6bb0dc76e6264e9fdf5cba964736f6c634300081b0033",
  "linkReferences": {},
  "deployedLinkReferences": {}
}