{
  "_format": "hh-sol-artifact-1",
  "contractName": "OrderBook",
  "sourceName": "contracts/OrderBook.sol",
  "abi": [
    {
      "inputs": [],
      "stateMutability": "nonpayable",
      "type": "constructor"
    },
    {
      "inputs": [
        {
          "internalType": "address",
          "name": "owner",
          "type": "address"
        }
      ],
      "name": "OwnableInvalidOwner",
      "type": "error"
    },
    {
      "inputs": [
        {
          "internalType": "address",
          "name": "account",
          "type": "address"
        }
      ],
      "name": "OwnableUnauthorizedAccount",
      "type": "error"
    },
    {
      "anonymous": false,
      "inputs": [
        {
          "indexed": true,
          "internalType": "uint256",
          "name": "orderId",
          "type": "uint256"
        },
        {
          "indexed": true,
          "internalType": "address",
          "name": "user",
          "type": "address"
        }
      ],
      "name": "OrderCancelled",
      "type": "event"
    },
    {
      "anonymous": false,
      "inputs": [
        {
          "indexed": true,
          "internalType": "uint256",
          "name": "orderId",
          "type": "uint256"
        },
        {
          "indexed": true,
          "internalType": "address",
          "name": "executor",
          "type": "address"
        },
        {
          "indexed": false,
          "internalType": "uint256",
          "name": "amount",
          "type": "uint256"
        }
      ],
      "name": "OrderExecuted",
      "type": "event"
    },
    {
      "anonymous": false,
      "inputs": [
        {
          "indexed": true,
          "internalType": "uint256",
          "name": "orderId",
          "type": "uint256"
        },
        {
          "indexed": true,
          "internalType": "address",
          "name": "user",
          "type": "address"
        },
        {
          "indexed": true,
          "internalType": "address",
          "name": "token",
          "type": "address"
        },
        {
          "indexed": false,
          "internalType": "uint256",
          "name": "amount",
          "type": "uint256"
        },
        {
          "indexed": false,
          "internalType": "uint256",
          "name": "price",
          "type": "uint256"
        },
        {
          "indexed": false,
          "internalType": "bool",
          "name": "isBuyOrder",
          "type": "bool"
        },
        {
          "indexed": false,
          "internalType": "bool",
          "name": "isPrivate",
          "type": "bool"
        }
      ],
      "name": "OrderPlaced",
      "type": "event"
    },
    {
      "anonymous": false,
      "inputs": [
        {
          "indexed": true,
          "internalType": "address",
          "name": "previousOwner",
          "type": "address"
        },
        {
          "indexed": true,
          "internalType": "address",
          "name": "newOwner",
          "type": "address"
        }
      ],
      "name": "OwnershipTransferred",
      "type": "event"
    },
    {
      "anonymous": false,
      "inputs": [
        {
          "indexed": true,
          "internalType": "address",
          "name": "user",
          "type": "address"
        },
        {
          "indexed": false,
          "internalType": "bool",
          "name": "isEnabled",
          "type": "bool"
        }
      ],
      "name": "SecurityToggled",
      "type": "event"
    },
    {
      "anonymous": false,
      "inputs": [
        {
          "indexed": true,
          "internalType": "bytes32",
          "name": "txHash",
          "type": "bytes32"
        },
        {
          "indexed": true,
          "internalType": "address",
          "name": "user",
          "type": "address"
        }
      ],
      "name": "TransactionRevealed",
      "type": "event"
    },
    {
      "anonymous": false,
      "inputs": [
        {
          "indexed": true,
          "internalType": "bytes32",
          "name": "txHash",
          "type": "bytes32"
        },
        {
          "indexed": true,
          "internalType": "address",
          "name": "user",
          "type": "address"
        },
        {
          "indexed": false,
          "internalType": "uint256",
          "name": "orderId",
          "type": "uint256"
        },
        {
          "indexed": false,
          "internalType": "uint256",
          "name": "amount",
          "type": "uint256"
        },
        {
          "indexed": false,
          "internalType": "uint256",
          "name": "timestamp",
          "type": "uint256"
        },
        {
          "indexed": false,
          "internalType": "bool",
          "name": "isPrivate",
          "type": "bool"
        }
      ],
      "name": "TransactionSubmitted",
      "type": "event"
    },
    {
      "inputs": [
        {
          "internalType": "uint256",
          "name": "orderId",
          "type": "uint256"
        }
      ],
      "name": "cancelOrder",
      "outputs": [],
      "stateMutability": "nonpayable",
      "type": "function"
    },
    {
      "inputs": [],
      "name": "delayTime",
      "outputs": [
        {
          "internalType": "uint256",
          "name": "",
          "type": "uint256"
        }
      ],
      "stateMutability": "view",
      "type": "function"
    },
    {
      "inputs": [
        {
          "internalType": "uint256",
          "name": "orderId",
          "type": "uint256"
        },
        {
          "internalType": "uint256",
          "name": "marketLiquidity1",
          "type": "uint256"
        },
        {
          "internalType": "uint256",
          "name": "marketLiquidity2",
          "type": "uint256"
        }
      ],
      "name": "executeOrder",
      "outputs": [],
      "stateMutability": "nonpayable",
      "type": "function"
    },
    {
      "inputs": [
        {
          "internalType": "uint256",
          "name": "amountIn",
          "type": "uint256"
        },
        {
          "internalType": "uint256",
          "name": "reserveIn",
          "type": "uint256"
        },
        {
          "internalType": "uint256",
          "name": "reserveOut",
          "type": "uint256"
        }
      ],
      "name": "getAmountOut",
      "outputs": [
        {
          "internalType": "uint256",
          "name": "",
          "type": "uint256"
        }
      ],
      "stateMutability": "pure",
      "type": "function"
    },
    {
      "inputs": [],
      "name": "orderCount",
      "outputs": [
        {
          "internalType": "uint256",
          "name": "",
          "type": "uint256"
        }
      ],
      "stateMutability": "view",
      "type": "function"
    },
    {
      "inputs": [
        {
          "internalType": "uint256",
          "name": "",
          "type": "uint256"
        }
      ],
      "name": "orders",
      "outputs": [
        {
          "internalType": "address",
          "name": "user",
          "type": "address"
        },
        {
          "internalType": "address",
          "name": "token",
          "type": "address"
        },
        {
          "internalType": "uint256",
          "name": "amount",
          "type": "uint256"
        },
        {
          "internalType": "uint256",
          "name": "price",
          "type": "uint256"
        },
        {
          "internalType": "bool",
          "name": "isBuyOrder",
          "type": "bool"
        },
        {
          "internalType": "bool",
          "name": "isPrivate",
          "type": "bool"
        },
        {
          "internalType": "uint256",
          "name": "timestamp",
          "type": "uint256"
        }
      ],
      "stateMutability": "view",
      "type": "function"
    },
    {
      "inputs": [],
      "name": "owner",
      "outputs": [
        {
          "internalType": "address",
          "name": "",
          "type": "address"
        }
      ],
      "stateMutability": "view",
      "type": "function"
    },
    {
      "inputs": [
        {
          "internalType": "address",
          "name": "token",
          "type": "address"
        },
        {
          "internalType": "uint256",
          "name": "amount",
          "type": "uint256"
        },
        {
          "internalType": "uint256",
          "name": "price",
          "type": "uint256"
        },
        {
          "internalType": "bool",
          "name": "isBuyOrder",
          "type": "bool"
        }
      ],
      "name": "placeOrder",
      "outputs": [],
      "stateMutability": "nonpayable",
      "type": "function"
    },
    {
      "inputs": [],
      "name": "renounceOwnership",
      "outputs": [],
      "stateMutability": "nonpayable",
      "type": "function"
    },
    {
      "inputs": [
        {
          "internalType": "bytes32",
          "name": "txHash",
          "type": "bytes32"
        }
      ],
      "name": "revealTransaction",
      "outputs": [],
      "stateMutability": "nonpayable",
      "type": "function"
    },
    {
      "inputs": [
        {
          "internalType": "address",
          "name": "",
          "type": "address"
        }
      ],
      "name": "securityToggled",
      "outputs": [
        {
          "internalType": "bool",
          "name": "",
          "type": "bool"
        }
      ],
      "stateMutability": "view",
      "type": "function"
    },
    {
      "inputs": [
        {
          "internalType": "bool",
          "name": "enabled",
          "type": "bool"
        }
      ],
      "name": "toggleSecurity",
      "outputs": [],
      "stateMutability": "nonpayable",
      "type": "function"
    },
    {
      "inputs": [
        {
          "internalType": "bytes32",
          "name": "",
          "type": "bytes32"
        }
      ],
      "name": "transactions",
      "outputs": [
        {
          "internalType": "address",
          "name": "user",
          "type": "address"
        },
        {
          "internalType": "uint256",
          "name": "orderId",
          "type": "uint256"
        },
        {
          "internalType": "uint256",
          "name": "amount",
          "type": "uint256"
        },
        {
          "internalType": "uint256",
          "name": "timestamp",
          "type": "uint256"
        },
        {
          "internalType": "bool",
          "name": "isPrivate",
          "type": "bool"
        }
      ],
      "stateMutability": "view",
      "type": "function"
    },
    {
      "inputs": [
        {
          "internalType": "address",
          "name": "newOwner",
          "type": "address"
        }
      ],
      "name": "transferOwnership",
      "outputs": [],
      "stateMutability": "nonpayable",
      "type": "function"
    }
  ],
  "bytecode": "0x6080604052600580553480156200001557600080fd5b5033600073ffffffffffffffffffffffffffffffffffffffff168173ffffffffffffffffffffffffffffffffffffffff16036200008c5760006040517f1e4fbdf7000000000000000000000000000000000000000000000000000000008152600401620000839190620001ad565b60405180910390fd5b6200009d81620000a460201b60201c565b50620001ca565b60008060009054906101000a900473ffffffffffffffffffffffffffffffffffffffff169050816000806101000a81548173ffffffffffffffffffffffffffffffffffffffff021916908373ffffffffffffffffffffffffffffffffffffffff1602179055508173ffffffffffffffffffffffffffffffffffffffff168173ffffffffffffffffffffffffffffffffffffffff167f8be0079c531659141344cd1fd0a4f28419497f9722a3daafe3b4186f6b6457e060405160405180910390a35050565b600073ffffffffffffffffffffffffffffffffffffffff82169050919050565b6000620001958262000168565b9050919050565b620001a78162000188565b82525050565b6000602082019050620001c460008301846200019c565b92915050565b611c8b80620001da6000396000f3fe608060405234801561001057600080fd5b50600436106100ea5760003560e01c80637e2eee531161008c578063ac15e2f411610066578063ac15e2f414610241578063be25aff91461025d578063ed79e6c114610279578063f2fde38b146102a9576100ea565b80637e2eee53146101cf5780638da5cb5b146101ed578063a85c38ef1461020b576100ea565b80632bdb12a9116100c85780632bdb12a914610159578063514fcac714610175578063642f2eaf14610191578063715018a6146101c5576100ea565b8063054d50d4146100ef5780630bfb7b1e1461011f5780632453ffa81461013b575b600080fd5b610109600480360381019061010491906112ef565b6102c5565b6040516101169190611351565b60405180910390f35b610139600480360381019061013491906112ef565b610340565b005b61014361087e565b6040516101509190611351565b60405180910390f35b610173600480360381019061016e91906113a4565b610884565b005b61018f600480360381019061018a91906113d1565b61092c565b005b6101ab60048036038101906101a69190611434565b610b08565b6040516101bc9594939291906114b1565b60405180910390f35b6101cd610b6b565b005b6101d7610b7f565b6040516101e49190611351565b60405180910390f35b6101f5610b85565b6040516102029190611504565b60405180910390f35b610225600480360381019061022091906113d1565b610bae565b604051610238979695949392919061151f565b60405180910390f35b61025b600480360381019061025691906115ba565b610c4a565b005b61027760048036038101906102729190611434565b610e8f565b005b610293600480360381019061028e9190611621565b6110bb565b6040516102a0919061164e565b60405180910390f35b6102c360048036038101906102be9190611621565b6110db565b005b6000808411610309576040517f08c379a0000000000000000000000000000000000000000000000000000000008152600401610300906116c6565b60405180910390fd5b600082856103179190611715565b9050600085856103279190611757565b9050808261033591906117ba565b925050509392505050565b6000600160008581526020019081526020016000209050600081600201541161039e576040517f08c379a000000000000000000000000000000000000000000000000000000000815260040161039590611837565b60405180910390fd5b60006103af826002015485856102c5565b905060008260040160009054906101000a900460ff1680156103d5575082600301548211155b806103ff57508260040160009054906101000a900460ff161580156103fe575082600301548210155b5b905080610441576040517f08c379a0000000000000000000000000000000000000000000000000000000008152600401610438906118a3565b60405180910390fd5b8260040160019054906101000a900460ff16156105c85760003387856002015442604051602001610475949392919061192c565b6040516020818303038152906040528051906020012090506040518060a001604052803373ffffffffffffffffffffffffffffffffffffffff16815260200188815260200185600201548152602001428152602001600115158152506002600083815260200190815260200160002060008201518160000160006101000a81548173ffffffffffffffffffffffffffffffffffffffff021916908373ffffffffffffffffffffffffffffffffffffffff16021790555060208201518160010155604082015181600201556060820151816003015560808201518160040160006101000a81548160ff0219169083151502179055509050503373ffffffffffffffffffffffffffffffffffffffff16817f9a649dde6f71bd2084fa520b4869f18c1e0adf0f91e66402fca5fb0aa0fe5f468987600201544260016040516105be949392919061197a565b60405180910390a3505b8260040160009054906101000a900460ff16156106b1578260010160009054906101000a900473ffffffffffffffffffffffffffffffffffffffff1673ffffffffffffffffffffffffffffffffffffffff166323b872dd8460000160009054906101000a900473ffffffffffffffffffffffffffffffffffffffff163386600201546040518463ffffffff1660e01b8152600401610668939291906119bf565b6020604051808303816000875af1158015610687573d6000803e3d6000fd5b505050506040513d601f19601f820116820180604052508101906106ab9190611a0b565b5061077f565b8260010160009054906101000a900473ffffffffffffffffffffffffffffffffffffffff1673ffffffffffffffffffffffffffffffffffffffff166323b872dd338560000160009054906101000a900473ffffffffffffffffffffffffffffffffffffffff1686600201546040518463ffffffff1660e01b815260040161073a939291906119bf565b6020604051808303816000875af1158015610759573d6000803e3d6000fd5b505050506040513d601f19601f8201168201806040525081019061077d9190611a0b565b505b3373ffffffffffffffffffffffffffffffffffffffff16867f9b32d7714729bdcd899b9c5460b1ec55a813e10e7a51271f146949e4e19f7b9985600201546040516107ca9190611351565b60405180910390a360016000878152602001908152602001600020600080820160006101000a81549073ffffffffffffffffffffffffffffffffffffffff02191690556001820160006101000a81549073ffffffffffffffffffffffffffffffffffffffff0219169055600282016000905560038201600090556004820160006101000a81549060ff02191690556004820160016101000a81549060ff021916905560058201600090555050505050505050565b60045481565b80600360003373ffffffffffffffffffffffffffffffffffffffff1673ffffffffffffffffffffffffffffffffffffffff16815260200190815260200160002060006101000a81548160ff0219169083151502179055503373ffffffffffffffffffffffffffffffffffffffff167f3f213a620185a34a7c532d3d2f625100979cc50d28590fa12d37a986d541ef4082604051610921919061164e565b60405180910390a250565b6000600160008381526020019081526020016000209050600081600201541161098a576040517f08c379a000000000000000000000000000000000000000000000000000000000815260040161098190611837565b60405180910390fd5b3373ffffffffffffffffffffffffffffffffffffffff168160000160009054906101000a900473ffffffffffffffffffffffffffffffffffffffff1673ffffffffffffffffffffffffffffffffffffffff1614610a1c576040517f08c379a0000000000000000000000000000000000000000000000000000000008152600401610a1390611aaa565b60405180910390fd5b3373ffffffffffffffffffffffffffffffffffffffff16827fc0362da6f2ff36b382b34aec0814f6b3cdf89f5ef282a1d1f114d0c0b036d59660405160405180910390a360016000838152602001908152602001600020600080820160006101000a81549073ffffffffffffffffffffffffffffffffffffffff02191690556001820160006101000a81549073ffffffffffffffffffffffffffffffffffffffff0219169055600282016000905560038201600090556004820160006101000a81549060ff02191690556004820160016101000a81549060ff0219169055600582016000905550505050565b60026020528060005260406000206000915090508060000160009054906101000a900473ffffffffffffffffffffffffffffffffffffffff16908060010154908060020154908060030154908060040160009054906101000a900460ff16905085565b610b73611161565b610b7d60006111e8565b565b60055481565b60008060009054906101000a900473ffffffffffffffffffffffffffffffffffffffff16905090565b60016020528060005260406000206000915090508060000160009054906101000a900473ffffffffffffffffffffffffffffffffffffffff16908060010160009054906101000a900473ffffffffffffffffffffffffffffffffffffffff16908060020154908060030154908060040160009054906101000a900460ff16908060040160019054906101000a900460ff16908060050154905087565b60046000815480929190610c5d90611aca565b91905055506000600360003373ffffffffffffffffffffffffffffffffffffffff1673ffffffffffffffffffffffffffffffffffffffff16815260200190815260200160002060009054906101000a900460ff1690506040518060e001604052803373ffffffffffffffffffffffffffffffffffffffff1681526020018673ffffffffffffffffffffffffffffffffffffffff168152602001858152602001848152602001831515815260200182151581526020014281525060016000600454815260200190815260200160002060008201518160000160006101000a81548173ffffffffffffffffffffffffffffffffffffffff021916908373ffffffffffffffffffffffffffffffffffffffff16021790555060208201518160010160006101000a81548173ffffffffffffffffffffffffffffffffffffffff021916908373ffffffffffffffffffffffffffffffffffffffff160217905550604082015181600201556060820151816003015560808201518160040160006101000a81548160ff02191690831515021790555060a08201518160040160016101000a81548160ff02191690831515021790555060c082015181600501559050508473ffffffffffffffffffffffffffffffffffffffff163373ffffffffffffffffffffffffffffffffffffffff166004547f6ffab661bff61b76a6f894b7b01769a786237aa9f412688eae45ec289962f96087878787604051610e809493929190611b12565b60405180910390a45050505050565b6000600260008381526020019081526020016000206040518060a00160405290816000820160009054906101000a900473ffffffffffffffffffffffffffffffffffffffff1673ffffffffffffffffffffffffffffffffffffffff1673ffffffffffffffffffffffffffffffffffffffff1681526020016001820154815260200160028201548152602001600382015481526020016004820160009054906101000a900460ff16151515158152505090503373ffffffffffffffffffffffffffffffffffffffff16816000015173ffffffffffffffffffffffffffffffffffffffff1614610fb2576040517f08c379a0000000000000000000000000000000000000000000000000000000008152600401610fa990611bc9565b60405180910390fd5b6005548160600151610fc49190611757565b421015611006576040517f08c379a0000000000000000000000000000000000000000000000000000000008152600401610ffd90611c35565b60405180910390fd5b806000015173ffffffffffffffffffffffffffffffffffffffff16827f97fefaeb1ded956af67d3d8c36d650a60bfb8b9a143e10c69f0f8a38f1fd9bab60405160405180910390a360026000838152602001908152602001600020600080820160006101000a81549073ffffffffffffffffffffffffffffffffffffffff02191690556001820160009055600282016000905560038201600090556004820160006101000a81549060ff021916905550505050565b60036020528060005260406000206000915054906101000a900460ff1681565b6110e3611161565b600073ffffffffffffffffffffffffffffffffffffffff168173ffffffffffffffffffffffffffffffffffffffff16036111555760006040517f1e4fbdf700000000000000000000000000000000000000000000000000000000815260040161114c9190611504565b60405180910390fd5b61115e816111e8565b50565b6111696112ac565b73ffffffffffffffffffffffffffffffffffffffff16611187610b85565b73ffffffffffffffffffffffffffffffffffffffff16146111e6576111aa6112ac565b6040517f118cdaa70000000000000000000000000000000000000000000000000000000081526004016111dd9190611504565b60405180910390fd5b565b60008060009054906101000a900473ffffffffffffffffffffffffffffffffffffffff169050816000806101000a81548173ffffffffffffffffffffffffffffffffffffffff021916908373ffffffffffffffffffffffffffffffffffffffff1602179055508173ffffffffffffffffffffffffffffffffffffffff168173ffffffffffffffffffffffffffffffffffffffff167f8be0079c531659141344cd1fd0a4f28419497f9722a3daafe3b4186f6b6457e060405160405180910390a35050565b600033905090565b600080fd5b6000819050919050565b6112cc816112b9565b81146112d757600080fd5b50565b6000813590506112e9816112c3565b92915050565b600080600060608486031215611308576113076112b4565b5b6000611316868287016112da565b9350506020611327868287016112da565b9250506040611338868287016112da565b9150509250925092565b61134b816112b9565b82525050565b60006020820190506113666000830184611342565b92915050565b60008115159050919050565b6113818161136c565b811461138c57600080fd5b50565b60008135905061139e81611378565b92915050565b6000602082840312156113ba576113b96112b4565b5b60006113c88482850161138f565b91505092915050565b6000602082840312156113e7576113e66112b4565b5b60006113f5848285016112da565b91505092915050565b6000819050919050565b611411816113fe565b811461141c57600080fd5b50565b60008135905061142e81611408565b92915050565b60006020828403121561144a576114496112b4565b5b60006114588482850161141f565b91505092915050565b600073ffffffffffffffffffffffffffffffffffffffff82169050919050565b600061148c82611461565b9050919050565b61149c81611481565b82525050565b6114ab8161136c565b82525050565b600060a0820190506114c66000830188611493565b6114d36020830187611342565b6114e06040830186611342565b6114ed6060830185611342565b6114fa60808301846114a2565b9695505050505050565b60006020820190506115196000830184611493565b92915050565b600060e082019050611534600083018a611493565b6115416020830189611493565b61154e6040830188611342565b61155b6060830187611342565b61156860808301866114a2565b61157560a08301856114a2565b61158260c0830184611342565b98975050505050505050565b61159781611481565b81146115a257600080fd5b50565b6000813590506115b48161158e565b92915050565b600080600080608085870312156115d4576115d36112b4565b5b60006115e2878288016115a5565b94505060206115f3878288016112da565b9350506040611604878288016112da565b92505060606116158782880161138f565b91505092959194509250565b600060208284031215611637576116366112b4565b5b6000611645848285016115a5565b91505092915050565b600060208201905061166360008301846114a2565b92915050565b600082825260208201905092915050565b7f496e76616c696420696e70757420616d6f756e74000000000000000000000000600082015250565b60006116b0601483611669565b91506116bb8261167a565b602082019050919050565b600060208201905081810360008301526116df816116a3565b9050919050565b7f4e487b7100000000000000000000000000000000000000000000000000000000600052601160045260246000fd5b6000611720826112b9565b915061172b836112b9565b9250828202611739816112b9565b915082820484148315176117505761174f6116e6565b5b5092915050565b6000611762826112b9565b915061176d836112b9565b9250828201905080821115611785576117846116e6565b5b92915050565b7f4e487b7100000000000000000000000000000000000000000000000000000000600052601260045260246000fd5b60006117c5826112b9565b91506117d0836112b9565b9250826117e0576117df61178b565b5b828204905092915050565b7f4f7264657220646f6573206e6f74206578697374000000000000000000000000600082015250565b6000611821601483611669565b915061182c826117eb565b602082019050919050565b6000602082019050818103600083015261185081611814565b9050919050565b7f4f7264657220636f6e646974696f6e73206e6f74206d65740000000000000000600082015250565b600061188d601883611669565b915061189882611857565b602082019050919050565b600060208201905081810360008301526118bc81611880565b9050919050565b60008160601b9050919050565b60006118db826118c3565b9050919050565b60006118ed826118d0565b9050919050565b61190561190082611481565b6118e2565b82525050565b6000819050919050565b611926611921826112b9565b61190b565b82525050565b600061193882876118f4565b6014820191506119488286611915565b6020820191506119588285611915565b6020820191506119688284611915565b60208201915081905095945050505050565b600060808201905061198f6000830187611342565b61199c6020830186611342565b6119a96040830185611342565b6119b660608301846114a2565b95945050505050565b60006060820190506119d46000830186611493565b6119e16020830185611493565b6119ee6040830184611342565b949350505050565b600081519050611a0581611378565b92915050565b600060208284031215611a2157611a206112b4565b5b6000611a2f848285016119f6565b91505092915050565b7f4f6e6c7920746865206f726465722063726561746f722063616e2063616e636560008201527f6c00000000000000000000000000000000000000000000000000000000000000602082015250565b6000611a94602183611669565b9150611a9f82611a38565b604082019050919050565b60006020820190508181036000830152611ac381611a87565b9050919050565b6000611ad5826112b9565b91507fffffffffffffffffffffffffffffffffffffffffffffffffffffffffffffffff8203611b0757611b066116e6565b5b600182019050919050565b6000608082019050611b276000830187611342565b611b346020830186611342565b611b4160408301856114a2565b611b4e60608301846114a2565b95945050505050565b7f4f6e6c792074686520757365722063616e2072657665616c207468697320747260008201527f616e73616374696f6e0000000000000000000000000000000000000000000000602082015250565b6000611bb3602983611669565b9150611bbe82611b57565b604082019050919050565b60006020820190508181036000830152611be281611ba6565b9050919050565b7f5472616e73616374696f6e206973207374696c6c207072697661746500000000600082015250565b6000611c1f601c83611669565b9150611c2a82611be9565b602082019050919050565b60006020820190508181036000830152611c4e81611c12565b905091905056fea2646970667358221220a1ad21ba2c0fe1a92c9c8497bc3eb78594a2505ce40cba23cc88ce2c603f1c0464736f6c63430008140033",
  "linkReferences": {},
  "deployedLinkReferences": {}
}