{
  "_format": "hh-sol-artifact-1",
  "contractName": "OrderBook",
  "sourceName": "contracts/OrderBook.sol",
  "abi": [
    {
      "inputs": [],
      "stateMutability": "nonpayable",
      "type": "constructor"
    },
    {
      "inputs": [
        {
          "internalType": "address",
          "name": "owner",
          "type": "address"
        }
      ],
      "name": "OwnableInvalidOwner",
      "type": "error"
    },
    {
      "inputs": [
        {
          "internalType": "address",
          "name": "account",
          "type": "address"
        }
      ],
      "name": "OwnableUnauthorizedAccount",
      "type": "error"
    },
    {
      "anonymous": false,
      "inputs": [
        {
          "indexed": true,
          "internalType": "uint256",
          "name": "orderId",
          "type": "uint256"
        },
        {
          "indexed": true,
          "internalType": "address",
          "name": "user",
          "type": "address"
        }
      ],
      "name": "OrderCancelled",
      "type": "event"
    },
    {
      "anonymous": false,
      "inputs": [
        {
          "indexed": true,
          "internalType": "uint256",
          "name": "orderId",
          "type": "uint256"
        },
        {
          "indexed": true,
          "internalType": "address",
          "name": "executor",
          "type": "address"
        },
        {
          "indexed": false,
          "internalType": "uint256",
          "name": "amount",
          "type": "uint256"
        }
      ],
      "name": "OrderExecuted",
      "type": "event"
    },
    {
      "anonymous": false,
      "inputs": [
        {
          "indexed": true,
          "internalType": "uint256",
          "name": "orderId",
          "type": "uint256"
        },
        {
          "indexed": true,
          "internalType": "address",
          "name": "user",
          "type": "address"
        },
        {
          "indexed": true,
          "internalType": "address",
          "name": "token",
          "type": "address"
        },
        {
          "indexed": false,
          "internalType": "uint256",
          "name": "amount",
          "type": "uint256"
        },
        {
          "indexed": false,
          "internalType": "uint256",
          "name": "price",
          "type": "uint256"
        },
        {
          "indexed": false,
          "internalType": "bool",
          "name": "isBuyOrder",
          "type": "bool"
        },
        {
          "indexed": false,
          "internalType": "bool",
          "name": "isPrivate",
          "type": "bool"
        }
      ],
      "name": "OrderPlaced",
      "type": "event"
    },
    {
      "anonymous": false,
      "inputs": [
        {
          "indexed": true,
          "internalType": "address",
          "name": "previousOwner",
          "type": "address"
        },
        {
          "indexed": true,
          "internalType": "address",
          "name": "newOwner",
          "type": "address"
        }
      ],
      "name": "OwnershipTransferred",
      "type": "event"
    },
    {
      "anonymous": false,
      "inputs": [
        {
          "indexed": true,
          "internalType": "address",
          "name": "user",
          "type": "address"
        },
        {
          "indexed": false,
          "internalType": "bool",
          "name": "isEnabled",
          "type": "bool"
        }
      ],
      "name": "SecurityToggled",
      "type": "event"
    },
    {
      "anonymous": false,
      "inputs": [
        {
          "indexed": true,
          "internalType": "bytes32",
          "name": "txHash",
          "type": "bytes32"
        },
        {
          "indexed": true,
          "internalType": "address",
          "name": "user",
          "type": "address"
        }
      ],
      "name": "TransactionRevealed",
      "type": "event"
    },
    {
      "anonymous": false,
      "inputs": [
        {
          "indexed": true,
          "internalType": "bytes32",
          "name": "txHash",
          "type": "bytes32"
        },
        {
          "indexed": true,
          "internalType": "address",
          "name": "user",
          "type": "address"
        },
        {
          "indexed": false,
          "internalType": "uint256",
          "name": "orderId",
          "type": "uint256"
        },
        {
          "indexed": false,
          "internalType": "uint256",
          "name": "amount",
          "type": "uint256"
        },
        {
          "indexed": false,
          "internalType": "uint256",
          "name": "timestamp",
          "type": "uint256"
        },
        {
          "indexed": false,
          "internalType": "bool",
          "name": "isPrivate",
          "type": "bool"
        }
      ],
      "name": "TransactionSubmitted",
      "type": "event"
    },
    {
      "inputs": [
        {
          "internalType": "address",
          "name": "token",
          "type": "address"
        }
      ],
      "name": "addToken",
      "outputs": [],
      "stateMutability": "nonpayable",
      "type": "function"
    },
    {
      "inputs": [
        {
          "internalType": "uint256",
          "name": "orderId",
          "type": "uint256"
        }
      ],
      "name": "cancelOrder",
      "outputs": [],
      "stateMutability": "nonpayable",
      "type": "function"
    },
    {
      "inputs": [],
      "name": "delayTime",
      "outputs": [
        {
          "internalType": "uint256",
          "name": "",
          "type": "uint256"
        }
      ],
      "stateMutability": "view",
      "type": "function"
    },
    {
      "inputs": [
        {
          "internalType": "uint256",
          "name": "orderId",
          "type": "uint256"
        },
        {
          "internalType": "uint256",
          "name": "marketLiquidity1",
          "type": "uint256"
        },
        {
          "internalType": "uint256",
          "name": "marketLiquidity2",
          "type": "uint256"
        }
      ],
      "name": "executeOrder",
      "outputs": [],
      "stateMutability": "nonpayable",
      "type": "function"
    },
    {
      "inputs": [],
      "name": "getAllTokens",
      "outputs": [
        {
          "internalType": "address[]",
          "name": "",
          "type": "address[]"
        }
      ],
      "stateMutability": "view",
      "type": "function"
    },
    {
      "inputs": [
        {
          "internalType": "uint256",
          "name": "amountIn",
          "type": "uint256"
        },
        {
          "internalType": "uint256",
          "name": "reserveIn",
          "type": "uint256"
        },
        {
          "internalType": "uint256",
          "name": "reserveOut",
          "type": "uint256"
        }
      ],
      "name": "getAmountOut",
      "outputs": [
        {
          "internalType": "uint256",
          "name": "",
          "type": "uint256"
        }
      ],
      "stateMutability": "pure",
      "type": "function"
    },
    {
      "inputs": [],
      "name": "orderCount",
      "outputs": [
        {
          "internalType": "uint256",
          "name": "",
          "type": "uint256"
        }
      ],
      "stateMutability": "view",
      "type": "function"
    },
    {
      "inputs": [
        {
          "internalType": "uint256",
          "name": "",
          "type": "uint256"
        }
      ],
      "name": "orders",
      "outputs": [
        {
          "internalType": "address",
          "name": "user",
          "type": "address"
        },
        {
          "internalType": "address",
          "name": "token",
          "type": "address"
        },
        {
          "internalType": "uint256",
          "name": "amount",
          "type": "uint256"
        },
        {
          "internalType": "uint256",
          "name": "price",
          "type": "uint256"
        },
        {
          "internalType": "bool",
          "name": "isBuyOrder",
          "type": "bool"
        },
        {
          "internalType": "bool",
          "name": "isPrivate",
          "type": "bool"
        },
        {
          "internalType": "uint256",
          "name": "timestamp",
          "type": "uint256"
        }
      ],
      "stateMutability": "view",
      "type": "function"
    },
    {
      "inputs": [],
      "name": "owner",
      "outputs": [
        {
          "internalType": "address",
          "name": "",
          "type": "address"
        }
      ],
      "stateMutability": "view",
      "type": "function"
    },
    {
      "inputs": [
        {
          "internalType": "address",
          "name": "token",
          "type": "address"
        },
        {
          "internalType": "uint256",
          "name": "amount",
          "type": "uint256"
        },
        {
          "internalType": "uint256",
          "name": "price",
          "type": "uint256"
        },
        {
          "internalType": "bool",
          "name": "isBuyOrder",
          "type": "bool"
        }
      ],
      "name": "placeOrder",
      "outputs": [],
      "stateMutability": "nonpayable",
      "type": "function"
    },
    {
      "inputs": [],
      "name": "renounceOwnership",
      "outputs": [],
      "stateMutability": "nonpayable",
      "type": "function"
    },
    {
      "inputs": [
        {
          "internalType": "bytes32",
          "name": "txHash",
          "type": "bytes32"
        }
      ],
      "name": "revealTransaction",
      "outputs": [],
      "stateMutability": "nonpayable",
      "type": "function"
    },
    {
      "inputs": [
        {
          "internalType": "address",
          "name": "",
          "type": "address"
        }
      ],
      "name": "securityToggled",
      "outputs": [
        {
          "internalType": "bool",
          "name": "",
          "type": "bool"
        }
      ],
      "stateMutability": "view",
      "type": "function"
    },
    {
      "inputs": [
        {
          "internalType": "bool",
          "name": "enabled",
          "type": "bool"
        }
      ],
      "name": "toggleSecurity",
      "outputs": [],
      "stateMutability": "nonpayable",
      "type": "function"
    },
    {
      "inputs": [
        {
          "internalType": "uint256",
          "name": "",
          "type": "uint256"
        }
      ],
      "name": "tokens",
      "outputs": [
        {
          "internalType": "address",
          "name": "",
          "type": "address"
        }
      ],
      "stateMutability": "view",
      "type": "function"
    },
    {
      "inputs": [
        {
          "internalType": "bytes32",
          "name": "",
          "type": "bytes32"
        }
      ],
      "name": "transactions",
      "outputs": [
        {
          "internalType": "address",
          "name": "user",
          "type": "address"
        },
        {
          "internalType": "uint256",
          "name": "orderId",
          "type": "uint256"
        },
        {
          "internalType": "uint256",
          "name": "amount",
          "type": "uint256"
        },
        {
          "internalType": "uint256",
          "name": "timestamp",
          "type": "uint256"
        },
        {
          "internalType": "bool",
          "name": "isPrivate",
          "type": "bool"
        }
      ],
      "stateMutability": "view",
      "type": "function"
    },
    {
      "inputs": [
        {
          "internalType": "address",
          "name": "newOwner",
          "type": "address"
        }
      ],
      "name": "transferOwnership",
      "outputs": [],
      "stateMutability": "nonpayable",
      "type": "function"
    }
  ],
  "bytecode": "0x6080604052600580553480156200001557600080fd5b5033600073ffffffffffffffffffffffffffffffffffffffff168173ffffffffffffffffffffffffffffffffffffffff16036200008c5760006040517f1e4fbdf7000000000000000000000000000000000000000000000000000000008152600401620000839190620001ad565b60405180910390fd5b6200009d81620000a460201b60201c565b50620001ca565b60008060009054906101000a900473ffffffffffffffffffffffffffffffffffffffff169050816000806101000a81548173ffffffffffffffffffffffffffffffffffffffff021916908373ffffffffffffffffffffffffffffffffffffffff1602179055508173ffffffffffffffffffffffffffffffffffffffff168173ffffffffffffffffffffffffffffffffffffffff167f8be0079c531659141344cd1fd0a4f28419497f9722a3daafe3b4186f6b6457e060405160405180910390a35050565b600073ffffffffffffffffffffffffffffffffffffffff82169050919050565b6000620001958262000168565b9050919050565b620001a78162000188565b82525050565b6000602082019050620001c460008301846200019c565b92915050565b61200c80620001da6000396000f3fe608060405234801561001057600080fd5b506004361061010b5760003560e01c8063715018a6116100a2578063ac15e2f411610071578063ac15e2f4146102b0578063be25aff9146102cc578063d48bfca7146102e8578063ed79e6c114610304578063f2fde38b146103345761010b565b8063715018a6146102345780637e2eee531461023e5780638da5cb5b1461025c578063a85c38ef1461027a5761010b565b80632bdb12a9116100de5780632bdb12a9146101985780634f64b2be146101b4578063514fcac7146101e4578063642f2eaf146102005761010b565b8063054d50d4146101105780630bfb7b1e146101405780632453ffa81461015c5780632a5c792a1461017a575b600080fd5b61012a60048036038101906101259190611524565b610350565b6040516101379190611586565b60405180910390f35b61015a60048036038101906101559190611524565b6103cb565b005b610164610909565b6040516101719190611586565b60405180910390f35b61018261090f565b60405161018f9190611691565b60405180910390f35b6101b260048036038101906101ad91906116eb565b61099d565b005b6101ce60048036038101906101c99190611718565b610a45565b6040516101db9190611754565b60405180910390f35b6101fe60048036038101906101f99190611718565b610a84565b005b61021a600480360381019061021591906117a5565b610c60565b60405161022b9594939291906117e1565b60405180910390f35b61023c610cc3565b005b610246610cd7565b6040516102539190611586565b60405180910390f35b610264610cdd565b6040516102719190611754565b60405180910390f35b610294600480360381019061028f9190611718565b610d06565b6040516102a79796959493929190611834565b60405180910390f35b6102ca60048036038101906102c591906118cf565b610da2565b005b6102e660048036038101906102e191906117a5565b610fe7565b005b61030260048036038101906102fd9190611936565b611213565b005b61031e60048036038101906103199190611936565b6112f0565b60405161032b9190611963565b60405180910390f35b61034e60048036038101906103499190611936565b611310565b005b6000808411610394576040517f08c379a000000000000000000000000000000000000000000000000000000000815260040161038b906119db565b60405180910390fd5b600082856103a29190611a2a565b9050600085856103b29190611a6c565b905080826103c09190611acf565b925050509392505050565b60006001600085815260200190815260200160002090506000816002015411610429576040517f08c379a000000000000000000000000000000000000000000000000000000000815260040161042090611b4c565b60405180910390fd5b600061043a82600201548585610350565b905060008260040160009054906101000a900460ff168015610460575082600301548211155b8061048a57508260040160009054906101000a900460ff16158015610489575082600301548210155b5b9050806104cc576040517f08c379a00000000000000000000000000000000000000000000000000000000081526004016104c390611bb8565b60405180910390fd5b8260040160019054906101000a900460ff161561065357600033878560020154426040516020016105009493929190611c41565b6040516020818303038152906040528051906020012090506040518060a001604052803373ffffffffffffffffffffffffffffffffffffffff16815260200188815260200185600201548152602001428152602001600115158152506002600083815260200190815260200160002060008201518160000160006101000a81548173ffffffffffffffffffffffffffffffffffffffff021916908373ffffffffffffffffffffffffffffffffffffffff16021790555060208201518160010155604082015181600201556060820151816003015560808201518160040160006101000a81548160ff0219169083151502179055509050503373ffffffffffffffffffffffffffffffffffffffff16817f9a649dde6f71bd2084fa520b4869f18c1e0adf0f91e66402fca5fb0aa0fe5f468987600201544260016040516106499493929190611c8f565b60405180910390a3505b8260040160009054906101000a900460ff161561073c578260010160009054906101000a900473ffffffffffffffffffffffffffffffffffffffff1673ffffffffffffffffffffffffffffffffffffffff166323b872dd8460000160009054906101000a900473ffffffffffffffffffffffffffffffffffffffff163386600201546040518463ffffffff1660e01b81526004016106f393929190611cd4565b6020604051808303816000875af1158015610712573d6000803e3d6000fd5b505050506040513d601f19601f820116820180604052508101906107369190611d20565b5061080a565b8260010160009054906101000a900473ffffffffffffffffffffffffffffffffffffffff1673ffffffffffffffffffffffffffffffffffffffff166323b872dd338560000160009054906101000a900473ffffffffffffffffffffffffffffffffffffffff1686600201546040518463ffffffff1660e01b81526004016107c593929190611cd4565b6020604051808303816000875af11580156107e4573d6000803e3d6000fd5b505050506040513d601f19601f820116820180604052508101906108089190611d20565b505b3373ffffffffffffffffffffffffffffffffffffffff16867f9b32d7714729bdcd899b9c5460b1ec55a813e10e7a51271f146949e4e19f7b9985600201546040516108559190611586565b60405180910390a360016000878152602001908152602001600020600080820160006101000a81549073ffffffffffffffffffffffffffffffffffffffff02191690556001820160006101000a81549073ffffffffffffffffffffffffffffffffffffffff0219169055600282016000905560038201600090556004820160006101000a81549060ff02191690556004820160016101000a81549060ff021916905560058201600090555050505050505050565b60045481565b6060600680548060200260200160405190810160405280929190818152602001828054801561099357602002820191906000526020600020905b8160009054906101000a900473ffffffffffffffffffffffffffffffffffffffff1673ffffffffffffffffffffffffffffffffffffffff1681526020019060010190808311610949575b5050505050905090565b80600360003373ffffffffffffffffffffffffffffffffffffffff1673ffffffffffffffffffffffffffffffffffffffff16815260200190815260200160002060006101000a81548160ff0219169083151502179055503373ffffffffffffffffffffffffffffffffffffffff167f3f213a620185a34a7c532d3d2f625100979cc50d28590fa12d37a986d541ef4082604051610a3a9190611963565b60405180910390a250565b60068181548110610a5557600080fd5b906000526020600020016000915054906101000a900473ffffffffffffffffffffffffffffffffffffffff1681565b60006001600083815260200190815260200160002090506000816002015411610ae2576040517f08c379a0000000000000000000000000000000000000000000000000000000008152600401610ad990611b4c565b60405180910390fd5b3373ffffffffffffffffffffffffffffffffffffffff168160000160009054906101000a900473ffffffffffffffffffffffffffffffffffffffff1673ffffffffffffffffffffffffffffffffffffffff1614610b74576040517f08c379a0000000000000000000000000000000000000000000000000000000008152600401610b6b90611dbf565b60405180910390fd5b3373ffffffffffffffffffffffffffffffffffffffff16827fc0362da6f2ff36b382b34aec0814f6b3cdf89f5ef282a1d1f114d0c0b036d59660405160405180910390a360016000838152602001908152602001600020600080820160006101000a81549073ffffffffffffffffffffffffffffffffffffffff02191690556001820160006101000a81549073ffffffffffffffffffffffffffffffffffffffff0219169055600282016000905560038201600090556004820160006101000a81549060ff02191690556004820160016101000a81549060ff0219169055600582016000905550505050565b60026020528060005260406000206000915090508060000160009054906101000a900473ffffffffffffffffffffffffffffffffffffffff16908060010154908060020154908060030154908060040160009054906101000a900460ff16905085565b610ccb611396565b610cd5600061141d565b565b60055481565b60008060009054906101000a900473ffffffffffffffffffffffffffffffffffffffff16905090565b60016020528060005260406000206000915090508060000160009054906101000a900473ffffffffffffffffffffffffffffffffffffffff16908060010160009054906101000a900473ffffffffffffffffffffffffffffffffffffffff16908060020154908060030154908060040160009054906101000a900460ff16908060040160019054906101000a900460ff16908060050154905087565b60046000815480929190610db590611ddf565b91905055506000600360003373ffffffffffffffffffffffffffffffffffffffff1673ffffffffffffffffffffffffffffffffffffffff16815260200190815260200160002060009054906101000a900460ff1690506040518060e001604052803373ffffffffffffffffffffffffffffffffffffffff1681526020018673ffffffffffffffffffffffffffffffffffffffff168152602001858152602001848152602001831515815260200182151581526020014281525060016000600454815260200190815260200160002060008201518160000160006101000a81548173ffffffffffffffffffffffffffffffffffffffff021916908373ffffffffffffffffffffffffffffffffffffffff16021790555060208201518160010160006101000a81548173ffffffffffffffffffffffffffffffffffffffff021916908373ffffffffffffffffffffffffffffffffffffffff160217905550604082015181600201556060820151816003015560808201518160040160006101000a81548160ff02191690831515021790555060a08201518160040160016101000a81548160ff02191690831515021790555060c082015181600501559050508473ffffffffffffffffffffffffffffffffffffffff163373ffffffffffffffffffffffffffffffffffffffff166004547f6ffab661bff61b76a6f894b7b01769a786237aa9f412688eae45ec289962f96087878787604051610fd89493929190611e27565b60405180910390a45050505050565b6000600260008381526020019081526020016000206040518060a00160405290816000820160009054906101000a900473ffffffffffffffffffffffffffffffffffffffff1673ffffffffffffffffffffffffffffffffffffffff1673ffffffffffffffffffffffffffffffffffffffff1681526020016001820154815260200160028201548152602001600382015481526020016004820160009054906101000a900460ff16151515158152505090503373ffffffffffffffffffffffffffffffffffffffff16816000015173ffffffffffffffffffffffffffffffffffffffff161461110a576040517f08c379a000000000000000000000000000000000000000000000000000000000815260040161110190611ede565b60405180910390fd5b600554816060015161111c9190611a6c565b42101561115e576040517f08c379a000000000000000000000000000000000000000000000000000000000815260040161115590611f4a565b60405180910390fd5b806000015173ffffffffffffffffffffffffffffffffffffffff16827f97fefaeb1ded956af67d3d8c36d650a60bfb8b9a143e10c69f0f8a38f1fd9bab60405160405180910390a360026000838152602001908152602001600020600080820160006101000a81549073ffffffffffffffffffffffffffffffffffffffff02191690556001820160009055600282016000905560038201600090556004820160006101000a81549060ff021916905550505050565b61121b611396565b600073ffffffffffffffffffffffffffffffffffffffff168173ffffffffffffffffffffffffffffffffffffffff160361128a576040517f08c379a000000000000000000000000000000000000000000000000000000000815260040161128190611fb6565b60405180910390fd5b6006819080600181540180825580915050600190039060005260206000200160009091909190916101000a81548173ffffffffffffffffffffffffffffffffffffffff021916908373ffffffffffffffffffffffffffffffffffffffff16021790555050565b60036020528060005260406000206000915054906101000a900460ff1681565b611318611396565b600073ffffffffffffffffffffffffffffffffffffffff168173ffffffffffffffffffffffffffffffffffffffff160361138a5760006040517f1e4fbdf70000000000000000000000000000000000000000000000000000000081526004016113819190611754565b60405180910390fd5b6113938161141d565b50565b61139e6114e1565b73ffffffffffffffffffffffffffffffffffffffff166113bc610cdd565b73ffffffffffffffffffffffffffffffffffffffff161461141b576113df6114e1565b6040517f118cdaa70000000000000000000000000000000000000000000000000000000081526004016114129190611754565b60405180910390fd5b565b60008060009054906101000a900473ffffffffffffffffffffffffffffffffffffffff169050816000806101000a81548173ffffffffffffffffffffffffffffffffffffffff021916908373ffffffffffffffffffffffffffffffffffffffff1602179055508173ffffffffffffffffffffffffffffffffffffffff168173ffffffffffffffffffffffffffffffffffffffff167f8be0079c531659141344cd1fd0a4f28419497f9722a3daafe3b4186f6b6457e060405160405180910390a35050565b600033905090565b600080fd5b6000819050919050565b611501816114ee565b811461150c57600080fd5b50565b60008135905061151e816114f8565b92915050565b60008060006060848603121561153d5761153c6114e9565b5b600061154b8682870161150f565b935050602061155c8682870161150f565b925050604061156d8682870161150f565b9150509250925092565b611580816114ee565b82525050565b600060208201905061159b6000830184611577565b92915050565b600081519050919050565b600082825260208201905092915050565b6000819050602082019050919050565b600073ffffffffffffffffffffffffffffffffffffffff82169050919050565b60006115f8826115cd565b9050919050565b611608816115ed565b82525050565b600061161a83836115ff565b60208301905092915050565b6000602082019050919050565b600061163e826115a1565b61164881856115ac565b9350611653836115bd565b8060005b8381101561168457815161166b888261160e565b975061167683611626565b925050600181019050611657565b5085935050505092915050565b600060208201905081810360008301526116ab8184611633565b905092915050565b60008115159050919050565b6116c8816116b3565b81146116d357600080fd5b50565b6000813590506116e5816116bf565b92915050565b600060208284031215611701576117006114e9565b5b600061170f848285016116d6565b91505092915050565b60006020828403121561172e5761172d6114e9565b5b600061173c8482850161150f565b91505092915050565b61174e816115ed565b82525050565b60006020820190506117696000830184611745565b92915050565b6000819050919050565b6117828161176f565b811461178d57600080fd5b50565b60008135905061179f81611779565b92915050565b6000602082840312156117bb576117ba6114e9565b5b60006117c984828501611790565b91505092915050565b6117db816116b3565b82525050565b600060a0820190506117f66000830188611745565b6118036020830187611577565b6118106040830186611577565b61181d6060830185611577565b61182a60808301846117d2565b9695505050505050565b600060e082019050611849600083018a611745565b6118566020830189611745565b6118636040830188611577565b6118706060830187611577565b61187d60808301866117d2565b61188a60a08301856117d2565b61189760c0830184611577565b98975050505050505050565b6118ac816115ed565b81146118b757600080fd5b50565b6000813590506118c9816118a3565b92915050565b600080600080608085870312156118e9576118e86114e9565b5b60006118f7878288016118ba565b94505060206119088782880161150f565b93505060406119198782880161150f565b925050606061192a878288016116d6565b91505092959194509250565b60006020828403121561194c5761194b6114e9565b5b600061195a848285016118ba565b91505092915050565b600060208201905061197860008301846117d2565b92915050565b600082825260208201905092915050565b7f496e76616c696420696e70757420616d6f756e74000000000000000000000000600082015250565b60006119c560148361197e565b91506119d08261198f565b602082019050919050565b600060208201905081810360008301526119f4816119b8565b9050919050565b7f4e487b7100000000000000000000000000000000000000000000000000000000600052601160045260246000fd5b6000611a35826114ee565b9150611a40836114ee565b9250828202611a4e816114ee565b91508282048414831517611a6557611a646119fb565b5b5092915050565b6000611a77826114ee565b9150611a82836114ee565b9250828201905080821115611a9a57611a996119fb565b5b92915050565b7f4e487b7100000000000000000000000000000000000000000000000000000000600052601260045260246000fd5b6000611ada826114ee565b9150611ae5836114ee565b925082611af557611af4611aa0565b5b828204905092915050565b7f4f7264657220646f6573206e6f74206578697374000000000000000000000000600082015250565b6000611b3660148361197e565b9150611b4182611b00565b602082019050919050565b60006020820190508181036000830152611b6581611b29565b9050919050565b7f4f7264657220636f6e646974696f6e73206e6f74206d65740000000000000000600082015250565b6000611ba260188361197e565b9150611bad82611b6c565b602082019050919050565b60006020820190508181036000830152611bd181611b95565b9050919050565b60008160601b9050919050565b6000611bf082611bd8565b9050919050565b6000611c0282611be5565b9050919050565b611c1a611c15826115ed565b611bf7565b82525050565b6000819050919050565b611c3b611c36826114ee565b611c20565b82525050565b6000611c4d8287611c09565b601482019150611c5d8286611c2a565b602082019150611c6d8285611c2a565b602082019150611c7d8284611c2a565b60208201915081905095945050505050565b6000608082019050611ca46000830187611577565b611cb16020830186611577565b611cbe6040830185611577565b611ccb60608301846117d2565b95945050505050565b6000606082019050611ce96000830186611745565b611cf66020830185611745565b611d036040830184611577565b949350505050565b600081519050611d1a816116bf565b92915050565b600060208284031215611d3657611d356114e9565b5b6000611d4484828501611d0b565b91505092915050565b7f4f6e6c7920746865206f726465722063726561746f722063616e2063616e636560008201527f6c00000000000000000000000000000000000000000000000000000000000000602082015250565b6000611da960218361197e565b9150611db482611d4d565b604082019050919050565b60006020820190508181036000830152611dd881611d9c565b9050919050565b6000611dea826114ee565b91507fffffffffffffffffffffffffffffffffffffffffffffffffffffffffffffffff8203611e1c57611e1b6119fb565b5b600182019050919050565b6000608082019050611e3c6000830187611577565b611e496020830186611577565b611e5660408301856117d2565b611e6360608301846117d2565b95945050505050565b7f4f6e6c792074686520757365722063616e2072657665616c207468697320747260008201527f616e73616374696f6e0000000000000000000000000000000000000000000000602082015250565b6000611ec860298361197e565b9150611ed382611e6c565b604082019050919050565b60006020820190508181036000830152611ef781611ebb565b9050919050565b7f5472616e73616374696f6e206973207374696c6c207072697661746500000000600082015250565b6000611f34601c8361197e565b9150611f3f82611efe565b602082019050919050565b60006020820190508181036000830152611f6381611f27565b9050919050565b7f496e76616c696420746f6b656e20616464726573730000000000000000000000600082015250565b6000611fa060158361197e565b9150611fab82611f6a565b602082019050919050565b60006020820190508181036000830152611fcf81611f93565b905091905056fea26469706673582212208a77d54f412fa4a1da79cd0af951efe50c86dac40f1846d1d085727572fb3efc64736f6c63430008140033",
  "linkReferences": {},
  "deployedLinkReferences": {}
}